{
  "_format": "hh-sol-artifact-1",
  "contractName": "ProtocolDAO",
  "sourceName": "contracts/contract/dao/ProtocolDAO.sol",
  "abi": [
    {
      "inputs": [
        {
          "internalType": "contract Storage",
          "name": "storageAddress",
          "type": "address"
        }
      ],
      "stateMutability": "nonpayable",
      "type": "constructor"
    },
    {
      "inputs": [],
      "name": "getInflationIntervalRate",
      "outputs": [
        {
          "internalType": "uint256",
          "name": "",
          "type": "uint256"
        }
      ],
      "stateMutability": "view",
      "type": "function"
    },
    {
      "inputs": [],
      "name": "getInflationIntervalStartTime",
      "outputs": [
        {
          "internalType": "uint256",
          "name": "",
          "type": "uint256"
        }
      ],
      "stateMutability": "view",
      "type": "function"
    },
    {
      "inputs": [
        {
          "internalType": "string",
          "name": "_contractName",
          "type": "string"
        }
      ],
      "name": "getPublicContractAddress",
      "outputs": [
        {
          "internalType": "address",
          "name": "",
          "type": "address"
        }
      ],
      "stateMutability": "view",
      "type": "function"
    },
    {
      "inputs": [
        {
          "internalType": "bytes32",
          "name": "settingNameSpace",
          "type": "bytes32"
        },
        {
          "internalType": "string",
          "name": "_settingPath",
          "type": "string"
        }
      ],
      "name": "getSettingAddress",
      "outputs": [
        {
          "internalType": "address",
          "name": "",
          "type": "address"
        }
      ],
      "stateMutability": "view",
      "type": "function"
    },
    {
      "inputs": [
        {
          "internalType": "bytes32",
          "name": "settingNameSpace",
          "type": "bytes32"
        },
        {
          "internalType": "string",
          "name": "_settingPath",
          "type": "string"
        }
      ],
      "name": "getSettingBool",
      "outputs": [
        {
          "internalType": "bool",
          "name": "",
          "type": "bool"
        }
      ],
      "stateMutability": "view",
      "type": "function"
    },
    {
      "inputs": [
        {
          "internalType": "bytes32",
          "name": "settingNameSpace",
          "type": "bytes32"
        },
        {
          "internalType": "string",
          "name": "_settingPath",
          "type": "string"
        }
      ],
      "name": "getSettingUint",
      "outputs": [
        {
          "internalType": "uint256",
          "name": "",
          "type": "uint256"
        }
      ],
      "stateMutability": "view",
      "type": "function"
    },
    {
      "inputs": [],
      "name": "initialize",
      "outputs": [],
      "stateMutability": "nonpayable",
      "type": "function"
    },
    {
      "inputs": [],
      "name": "version",
      "outputs": [
        {
          "internalType": "uint8",
          "name": "",
          "type": "uint8"
        }
      ],
      "stateMutability": "view",
      "type": "function"
    }
  ],
  "bytecode": "0x60806040523480156200001157600080fd5b5060405162001398380380620013988339818101604052810190620000379190620001b5565b8080600060016101000a81548173ffffffffffffffffffffffffffffffffffffffff021916908373ffffffffffffffffffffffffffffffffffffffff1602179055505060016000806101000a81548160ff021916908360ff1602179055506040518060400160405280601581526020017f64616f2e70726f746f636f6c2e73657474696e672e00000000000000000000008152506040518060400160405280600d81526020017f64616f2e70726f746f636f6c2e00000000000000000000000000000000000000815250604051602001620001149291906200026a565b604051602081830303815290604052805190602001206001819055505062000292565b600080fd5b600073ffffffffffffffffffffffffffffffffffffffff82169050919050565b600062000169826200013c565b9050919050565b60006200017d826200015c565b9050919050565b6200018f8162000170565b81146200019b57600080fd5b50565b600081519050620001af8162000184565b92915050565b600060208284031215620001ce57620001cd62000137565b5b6000620001de848285016200019e565b91505092915050565b600081519050919050565b600081905092915050565b60005b838110156200021d57808201518184015260208101905062000200565b838111156200022d576000848401525b50505050565b60006200024082620001e7565b6200024c8185620001f2565b93506200025e818560208601620001fd565b80840191505092915050565b600062000278828562000233565b915062000286828462000233565b91508190509392505050565b6110f680620002a26000396000f3fe608060405234801561001057600080fd5b50600436106100885760003560e01c80638129fc1c1161005b5780638129fc1c14610129578063cff0b64814610133578063ee96d77414610163578063f4d70e781461018157610088565b80630534f6db1461008d57806306eaa68b146100ab578063232de716146100db57806354fd4d501461010b575b600080fd5b6100956101b1565b6040516100a2919061090f565b60405180910390f35b6100c560048036038101906100c09190610aba565b6101f9565b6040516100d29190610b57565b60405180910390f35b6100f560048036038101906100f09190610aba565b610234565b6040516101029190610b8d565b60405180910390f35b61011361026f565b6040516101209190610bc4565b60405180910390f35b610131610280565b005b61014d60048036038101906101489190610bdf565b61047d565b60405161015a9190610b57565b60405180910390f35b61016b610529565b604051610178919061090f565b60405180910390f35b61019b60048036038101906101969190610aba565b610571565b6040516101a8919061090f565b60405180910390f35b60006101f46001546040518060400160405280601c81526020017f6767702e696e666c6174696f6e2e696e74657276616c2e737461727400000000815250610571565b905090565b600061022c8383604051602001610211929190610cc3565b604051602081830303815290604052805190602001206105ac565b905092915050565b6000610267838360405160200161024c929190610cc3565b60405160208183030381529060405280519060200120610650565b905092915050565b60008054906101000a900460ff1681565b600060019054906101000a900473ffffffffffffffffffffffffffffffffffffffff1673ffffffffffffffffffffffffffffffffffffffff1663a75b87d26040518163ffffffff1660e01b8152600401602060405180830381865afa1580156102ed573d6000803e3d6000fd5b505050506040513d601f19601f820116820180604052508101906103119190610d17565b73ffffffffffffffffffffffffffffffffffffffff163373ffffffffffffffffffffffffffffffffffffffff161461037e576040517f08c379a000000000000000000000000000000000000000000000000000000000815260040161037590610da1565b60405180910390fd5b6103af6001546040516020016103949190610e0d565b60405160208183030381529060405280519060200120610650565b61047b576103fa6040518060400160405280601b81526020017f6767702e696e666c6174696f6e2e696e74657276616c2e726174650000000000815250670de130489916479c6106f4565b6104476040518060400160405280601c81526020017f6767702e696e666c6174696f6e2e696e74657276616c2e73746172740000000081525062015180426104429190610e62565b6106f4565b61047a60015460405160200161045d9190610e0d565b60405160208183030381529060405280519060200120600161072c565b5b565b6000806104af836040516020016104949190610f04565b604051602081830303815290604052805190602001206105ac565b9050600073ffffffffffffffffffffffffffffffffffffffff168173ffffffffffffffffffffffffffffffffffffffff1603610520576040517f08c379a000000000000000000000000000000000000000000000000000000000815260040161051790610f72565b60405180910390fd5b80915050919050565b600061056c6001546040518060400160405280601b81526020017f6767702e696e666c6174696f6e2e696e74657276616c2e726174650000000000815250610571565b905090565b60006105a48383604051602001610589929190610cc3565b604051602081830303815290604052805190602001206107bf565b905092915050565b60008060019054906101000a900473ffffffffffffffffffffffffffffffffffffffff1673ffffffffffffffffffffffffffffffffffffffff166321f8a721836040518263ffffffff1660e01b81526004016106089190610fa1565b602060405180830381865afa158015610625573d6000803e3d6000fd5b505050506040513d601f19601f820116820180604052508101906106499190610d17565b9050919050565b60008060019054906101000a900473ffffffffffffffffffffffffffffffffffffffff1673ffffffffffffffffffffffffffffffffffffffff16637ae1cfca836040518263ffffffff1660e01b81526004016106ac9190610fa1565b602060405180830381865afa1580156106c9573d6000803e3d6000fd5b505050506040513d601f19601f820116820180604052508101906106ed9190610fe8565b9050919050565b6107286001548360405160200161070c929190610cc3565b6040516020818303038152906040528051906020012082610863565b5050565b600060019054906101000a900473ffffffffffffffffffffffffffffffffffffffff1673ffffffffffffffffffffffffffffffffffffffff1663abfdcced83836040518363ffffffff1660e01b8152600401610789929190611015565b600060405180830381600087803b1580156107a357600080fd5b505af11580156107b7573d6000803e3d6000fd5b505050505050565b60008060019054906101000a900473ffffffffffffffffffffffffffffffffffffffff1673ffffffffffffffffffffffffffffffffffffffff1663bd02d0f5836040518263ffffffff1660e01b815260040161081b9190610fa1565b602060405180830381865afa158015610838573d6000803e3d6000fd5b505050506040513d601f19601f8201168201806040525081019061085c919061106a565b9050919050565b600060019054906101000a900473ffffffffffffffffffffffffffffffffffffffff1673ffffffffffffffffffffffffffffffffffffffff1663e2a4853a83836040518363ffffffff1660e01b81526004016108c0929190611097565b600060405180830381600087803b1580156108da57600080fd5b505af11580156108ee573d6000803e3d6000fd5b505050505050565b6000819050919050565b610909816108f6565b82525050565b60006020820190506109246000830184610900565b92915050565b6000604051905090565b600080fd5b600080fd5b6000819050919050565b6109518161093e565b811461095c57600080fd5b50565b60008135905061096e81610948565b92915050565b600080fd5b600080fd5b6000601f19601f8301169050919050565b7f4e487b7100000000000000000000000000000000000000000000000000000000600052604160045260246000fd5b6109c78261097e565b810181811067ffffffffffffffff821117156109e6576109e561098f565b5b80604052505050565b60006109f961092a565b9050610a0582826109be565b919050565b600067ffffffffffffffff821115610a2557610a2461098f565b5b610a2e8261097e565b9050602081019050919050565b82818337600083830152505050565b6000610a5d610a5884610a0a565b6109ef565b905082815260208101848484011115610a7957610a78610979565b5b610a84848285610a3b565b509392505050565b600082601f830112610aa157610aa0610974565b5b8135610ab1848260208601610a4a565b91505092915050565b60008060408385031215610ad157610ad0610934565b5b6000610adf8582860161095f565b925050602083013567ffffffffffffffff811115610b0057610aff610939565b5b610b0c85828601610a8c565b9150509250929050565b600073ffffffffffffffffffffffffffffffffffffffff82169050919050565b6000610b4182610b16565b9050919050565b610b5181610b36565b82525050565b6000602082019050610b6c6000830184610b48565b92915050565b60008115159050919050565b610b8781610b72565b82525050565b6000602082019050610ba26000830184610b7e565b92915050565b600060ff82169050919050565b610bbe81610ba8565b82525050565b6000602082019050610bd96000830184610bb5565b92915050565b600060208284031215610bf557610bf4610934565b5b600082013567ffffffffffffffff811115610c1357610c12610939565b5b610c1f84828501610a8c565b91505092915050565b6000819050919050565b610c43610c3e8261093e565b610c28565b82525050565b600081519050919050565b600081905092915050565b60005b83811015610c7d578082015181840152602081019050610c62565b83811115610c8c576000848401525b50505050565b6000610c9d82610c49565b610ca78185610c54565b9350610cb7818560208601610c5f565b80840191505092915050565b6000610ccf8285610c32565b602082019150610cdf8284610c92565b91508190509392505050565b610cf481610b36565b8114610cff57600080fd5b50565b600081519050610d1181610ceb565b92915050565b600060208284031215610d2d57610d2c610934565b5b6000610d3b84828501610d02565b91505092915050565b600082825260208201905092915050565b7f4163636f756e74206973206e6f74206120677561726469616e00000000000000600082015250565b6000610d8b601983610d44565b9150610d9682610d55565b602082019050919050565b60006020820190508181036000830152610dba81610d7e565b9050919050565b7f6465706c6f796564000000000000000000000000000000000000000000000000600082015250565b6000610df7600883610c54565b9150610e0282610dc1565b600882019050919050565b6000610e198284610c32565b602082019150610e2882610dea565b915081905092915050565b7f4e487b7100000000000000000000000000000000000000000000000000000000600052601160045260246000fd5b6000610e6d826108f6565b9150610e78836108f6565b9250827fffffffffffffffffffffffffffffffffffffffffffffffffffffffffffffffff03821115610ead57610eac610e33565b5b828201905092915050565b7f636f6e74726163742e6164647265737300000000000000000000000000000000600082015250565b6000610eee601083610c54565b9150610ef982610eb8565b601082019050919050565b6000610f0f82610ee1565b9150610f1b8284610c92565b915081905092915050565b7f436f6e7472616374206e6f7420666f756e640000000000000000000000000000600082015250565b6000610f5c601283610d44565b9150610f6782610f26565b602082019050919050565b60006020820190508181036000830152610f8b81610f4f565b9050919050565b610f9b8161093e565b82525050565b6000602082019050610fb66000830184610f92565b92915050565b610fc581610b72565b8114610fd057600080fd5b50565b600081519050610fe281610fbc565b92915050565b600060208284031215610ffe57610ffd610934565b5b600061100c84828501610fd3565b91505092915050565b600060408201905061102a6000830185610f92565b6110376020830184610b7e565b9392505050565b611047816108f6565b811461105257600080fd5b50565b6000815190506110648161103e565b92915050565b6000602082840312156110805761107f610934565b5b600061108e84828501611055565b91505092915050565b60006040820190506110ac6000830185610f92565b6110b96020830184610900565b939250505056fea264697066735822122041d5b06fd93f4a32c45dedf89285c1759fd6d793bcc94e239f6a1e04b9ece7c864736f6c634300080d0033",
  "linkReferences": {},
  "deployedLinkReferences": {}
}