{
  "_format": "hh-sol-artifact-1",
  "contractName": "MinipoolManager",
  "sourceName": "contracts/contract/MinipoolManager.sol",
  "abi": [
    {
      "inputs": [
        {
          "internalType": "contract Storage",
          "name": "storageAddress",
          "type": "address"
        },
        {
          "internalType": "contract ERC20",
          "name": "ggp_",
          "type": "address"
        },
        {
          "internalType": "contract TokenggAVAX",
          "name": "ggAVAX_",
          "type": "address"
        }
      ],
      "stateMutability": "nonpayable",
      "type": "constructor"
    },
    {
      "inputs": [],
      "name": "ErrorIssuingValidationTx",
      "type": "error"
    },
    {
      "inputs": [],
      "name": "ErrorSendingAvax",
      "type": "error"
    },
    {
      "inputs": [],
      "name": "InsufficientAvaxForStaking",
      "type": "error"
    },
    {
      "inputs": [],
      "name": "InsufficientAvaxVaultBalance",
      "type": "error"
    },
    {
      "inputs": [],
      "name": "InvalidAmount",
      "type": "error"
    },
    {
      "inputs": [],
      "name": "InvalidEndTime",
      "type": "error"
    },
    {
      "inputs": [],
      "name": "InvalidMultisigAddress",
      "type": "error"
    },
    {
      "inputs": [],
      "name": "InvalidMultisigSignature",
      "type": "error"
    },
    {
      "inputs": [],
      "name": "InvalidStateTransition",
      "type": "error"
    },
    {
      "inputs": [],
      "name": "MinipoolAlreadyRegistered",
      "type": "error"
    },
    {
      "inputs": [],
      "name": "MinipoolMustBeInitialised",
      "type": "error"
    },
    {
      "inputs": [],
      "name": "MinipoolNotFound",
      "type": "error"
    },
    {
      "inputs": [],
      "name": "OnlyOwnerCanCancel",
      "type": "error"
    },
    {
      "inputs": [],
      "name": "OnlyOwnerCanWithdraw",
      "type": "error"
    },
    {
      "anonymous": false,
      "inputs": [
        {
          "indexed": true,
          "internalType": "address",
          "name": "nodeID",
          "type": "address"
        },
        {
          "indexed": true,
          "internalType": "enum MinipoolStatus",
          "name": "status",
          "type": "uint8"
        }
      ],
      "name": "MinipoolStatusChanged",
      "type": "event"
    },
    {
      "anonymous": false,
      "inputs": [
        {
          "indexed": true,
          "internalType": "address",
          "name": "nodeID",
          "type": "address"
        }
      ],
      "name": "ZeroRewardsReceived",
      "type": "event"
    },
    {
      "inputs": [],
      "name": "MINIPOOL_QUEUE_KEY",
      "outputs": [
        {
          "internalType": "bytes32",
          "name": "",
          "type": "bytes32"
        }
      ],
      "stateMutability": "view",
      "type": "function"
    },
    {
      "inputs": [],
      "name": "MIN_STAKING_AMT",
      "outputs": [
        {
          "internalType": "uint256",
          "name": "",
          "type": "uint256"
        }
      ],
      "stateMutability": "view",
      "type": "function"
    },
    {
      "inputs": [
        {
          "internalType": "address",
          "name": "nodeID",
          "type": "address"
        }
      ],
      "name": "canClaimAndInitiateStaking",
      "outputs": [
        {
          "internalType": "bool",
          "name": "",
          "type": "bool"
        }
      ],
      "stateMutability": "view",
      "type": "function"
    },
    {
      "inputs": [
        {
          "internalType": "address",
          "name": "nodeID",
          "type": "address"
        }
      ],
      "name": "cancelMinipool",
      "outputs": [],
      "stateMutability": "nonpayable",
      "type": "function"
    },
    {
      "inputs": [
        {
          "internalType": "address",
          "name": "nodeID",
          "type": "address"
        }
      ],
      "name": "claimAndInitiateStaking",
      "outputs": [],
      "stateMutability": "nonpayable",
      "type": "function"
    },
    {
      "inputs": [
        {
          "internalType": "address",
          "name": "nodeID",
          "type": "address"
        },
        {
          "internalType": "uint256",
          "name": "duration",
          "type": "uint256"
        },
        {
          "internalType": "uint256",
          "name": "delegationFee",
          "type": "uint256"
        },
        {
          "internalType": "uint256",
          "name": "ggpBondAmt",
          "type": "uint256"
        }
      ],
      "name": "createMinipool",
      "outputs": [],
      "stateMutability": "payable",
      "type": "function"
    },
    {
      "inputs": [],
      "name": "getAvailableUserFunds",
      "outputs": [
        {
          "internalType": "uint256",
          "name": "",
          "type": "uint256"
        }
      ],
      "stateMutability": "view",
      "type": "function"
    },
    {
      "inputs": [
        {
          "internalType": "address",
          "name": "nodeID",
          "type": "address"
        }
      ],
      "name": "getIndexOf",
      "outputs": [
        {
          "internalType": "int256",
          "name": "",
          "type": "int256"
        }
      ],
      "stateMutability": "view",
      "type": "function"
    },
    {
      "inputs": [
        {
          "internalType": "int256",
          "name": "index",
          "type": "int256"
        }
      ],
      "name": "getMinipool",
      "outputs": [
        {
          "components": [
            {
              "internalType": "address",
              "name": "nodeID",
              "type": "address"
            },
            {
              "internalType": "uint256",
              "name": "status",
              "type": "uint256"
            },
            {
              "internalType": "uint256",
              "name": "duration",
              "type": "uint256"
            },
            {
              "internalType": "uint256",
              "name": "startTime",
              "type": "uint256"
            },
            {
              "internalType": "uint256",
              "name": "endTime",
              "type": "uint256"
            },
            {
              "internalType": "uint256",
              "name": "delegationFee",
              "type": "uint256"
            },
            {
              "internalType": "uint256",
              "name": "ggpBondAmt",
              "type": "uint256"
            },
            {
              "internalType": "uint256",
              "name": "avaxNodeOpAmt",
              "type": "uint256"
            },
            {
              "internalType": "uint256",
              "name": "avaxUserAmt",
              "type": "uint256"
            },
            {
              "internalType": "uint256",
              "name": "avaxTotalRewardAmt",
              "type": "uint256"
            },
            {
              "internalType": "uint256",
              "name": "avaxNodeOpRewardAmt",
              "type": "uint256"
            },
            {
              "internalType": "uint256",
              "name": "avaxUserRewardAmt",
              "type": "uint256"
            },
            {
              "internalType": "address",
              "name": "owner",
              "type": "address"
            },
            {
              "internalType": "address",
              "name": "multisigAddr",
              "type": "address"
            }
          ],
          "internalType": "struct MinipoolManager.Minipool",
          "name": "mp",
          "type": "tuple"
        }
      ],
      "stateMutability": "view",
      "type": "function"
    },
    {
      "inputs": [],
      "name": "getMinipoolCount",
      "outputs": [
        {
          "internalType": "uint256",
          "name": "",
          "type": "uint256"
        }
      ],
      "stateMutability": "view",
      "type": "function"
    },
    {
      "inputs": [
        {
          "internalType": "uint256",
          "name": "offset",
          "type": "uint256"
        },
        {
          "internalType": "uint256",
          "name": "limit",
          "type": "uint256"
        }
      ],
      "name": "getMinipoolCountPerStatus",
      "outputs": [
        {
          "internalType": "uint256",
          "name": "prelaunchCount",
          "type": "uint256"
        },
        {
          "internalType": "uint256",
          "name": "launchedCount",
          "type": "uint256"
        },
        {
          "internalType": "uint256",
          "name": "stakingCount",
          "type": "uint256"
        },
        {
          "internalType": "uint256",
          "name": "withdrawableCount",
          "type": "uint256"
        },
        {
          "internalType": "uint256",
          "name": "finishedCount",
          "type": "uint256"
        },
        {
          "internalType": "uint256",
          "name": "canceledCount",
          "type": "uint256"
        }
      ],
      "stateMutability": "view",
      "type": "function"
    },
    {
      "inputs": [
        {
          "internalType": "enum MinipoolStatus",
          "name": "status",
          "type": "uint8"
        },
        {
          "internalType": "uint256",
          "name": "offset",
          "type": "uint256"
        },
        {
          "internalType": "uint256",
          "name": "limit",
          "type": "uint256"
        }
      ],
      "name": "getMinipools",
      "outputs": [
        {
          "components": [
            {
              "internalType": "address",
              "name": "nodeID",
              "type": "address"
            },
            {
              "internalType": "uint256",
              "name": "status",
              "type": "uint256"
            },
            {
              "internalType": "uint256",
              "name": "duration",
              "type": "uint256"
            },
            {
              "internalType": "uint256",
              "name": "startTime",
              "type": "uint256"
            },
            {
              "internalType": "uint256",
              "name": "endTime",
              "type": "uint256"
            },
            {
              "internalType": "uint256",
              "name": "delegationFee",
              "type": "uint256"
            },
            {
              "internalType": "uint256",
              "name": "ggpBondAmt",
              "type": "uint256"
            },
            {
              "internalType": "uint256",
              "name": "avaxNodeOpAmt",
              "type": "uint256"
            },
            {
              "internalType": "uint256",
              "name": "avaxUserAmt",
              "type": "uint256"
            },
            {
              "internalType": "uint256",
              "name": "avaxTotalRewardAmt",
              "type": "uint256"
            },
            {
              "internalType": "uint256",
              "name": "avaxNodeOpRewardAmt",
              "type": "uint256"
            },
            {
              "internalType": "uint256",
              "name": "avaxUserRewardAmt",
              "type": "uint256"
            },
            {
              "internalType": "address",
              "name": "owner",
              "type": "address"
            },
            {
              "internalType": "address",
              "name": "multisigAddr",
              "type": "address"
            }
          ],
          "internalType": "struct MinipoolManager.Minipool[]",
          "name": "minipools",
          "type": "tuple[]"
        }
      ],
      "stateMutability": "view",
      "type": "function"
    },
    {
      "inputs": [
        {
          "internalType": "string",
          "name": "_contractName",
          "type": "string"
        }
      ],
      "name": "getPublicContractAddress",
      "outputs": [
        {
          "internalType": "address",
          "name": "",
          "type": "address"
        }
      ],
      "stateMutability": "view",
      "type": "function"
    },
    {
      "inputs": [
        {
          "internalType": "bytes32",
          "name": "settingNameSpace",
          "type": "bytes32"
        },
        {
          "internalType": "string",
          "name": "_settingPath",
          "type": "string"
        }
      ],
      "name": "getSettingAddress",
      "outputs": [
        {
          "internalType": "address",
          "name": "",
          "type": "address"
        }
      ],
      "stateMutability": "view",
      "type": "function"
    },
    {
      "inputs": [
        {
          "internalType": "bytes32",
          "name": "settingNameSpace",
          "type": "bytes32"
        },
        {
          "internalType": "string",
          "name": "_settingPath",
          "type": "string"
        }
      ],
      "name": "getSettingBool",
      "outputs": [
        {
          "internalType": "bool",
          "name": "",
          "type": "bool"
        }
      ],
      "stateMutability": "view",
      "type": "function"
    },
    {
      "inputs": [
        {
          "internalType": "bytes32",
          "name": "settingNameSpace",
          "type": "bytes32"
        },
        {
          "internalType": "string",
          "name": "_settingPath",
          "type": "string"
        }
      ],
      "name": "getSettingUint",
      "outputs": [
        {
          "internalType": "uint256",
          "name": "",
          "type": "uint256"
        }
      ],
      "stateMutability": "view",
      "type": "function"
    },
    {
      "inputs": [],
      "name": "ggAVAX",
      "outputs": [
        {
          "internalType": "contract TokenggAVAX",
          "name": "",
          "type": "address"
        }
      ],
      "stateMutability": "view",
      "type": "function"
    },
    {
      "inputs": [],
      "name": "ggp",
      "outputs": [
        {
          "internalType": "contract ERC20",
          "name": "",
          "type": "address"
        }
      ],
      "stateMutability": "view",
      "type": "function"
    },
    {
      "inputs": [],
      "name": "receiveWithdrawalAVAX",
      "outputs": [],
      "stateMutability": "payable",
      "type": "function"
    },
    {
      "inputs": [
        {
          "internalType": "address",
          "name": "nodeID",
          "type": "address"
        },
        {
          "internalType": "uint256",
          "name": "endTime",
          "type": "uint256"
        },
        {
          "internalType": "uint256",
          "name": "avaxTotalRewardAmt",
          "type": "uint256"
        }
      ],
      "name": "recordStakingEnd",
      "outputs": [],
      "stateMutability": "payable",
      "type": "function"
    },
    {
      "inputs": [
        {
          "internalType": "address",
          "name": "nodeID",
          "type": "address"
        },
        {
          "internalType": "uint256",
          "name": "endTime",
          "type": "uint256"
        },
        {
          "internalType": "string",
          "name": "message",
          "type": "string"
        }
      ],
      "name": "recordStakingError",
      "outputs": [],
      "stateMutability": "nonpayable",
      "type": "function"
    },
    {
      "inputs": [
        {
          "internalType": "address",
          "name": "nodeID",
          "type": "address"
        },
        {
          "internalType": "uint256",
          "name": "startTime",
          "type": "uint256"
        }
      ],
      "name": "recordStakingStart",
      "outputs": [],
      "stateMutability": "nonpayable",
      "type": "function"
    },
    {
      "inputs": [
        {
          "internalType": "address",
          "name": "nodeID",
          "type": "address"
        },
        {
          "internalType": "enum MinipoolStatus",
          "name": "status",
          "type": "uint8"
        }
      ],
      "name": "updateMinipoolStatus",
      "outputs": [],
      "stateMutability": "nonpayable",
      "type": "function"
    },
    {
      "inputs": [],
      "name": "version",
      "outputs": [
        {
          "internalType": "uint8",
          "name": "",
          "type": "uint8"
        }
      ],
      "stateMutability": "view",
      "type": "function"
    },
    {
      "inputs": [
        {
          "internalType": "address",
          "name": "nodeID",
          "type": "address"
        }
      ],
      "name": "withdrawMinipoolFunds",
      "outputs": [],
      "stateMutability": "nonpayable",
      "type": "function"
    }
  ],
  "bytecode": "0x610100604052686c6b935b8bbd40000060c0908152507fe675a52310cd568651491803fe5dccf5a3cb1afd2c9bec7092ea6592e5d5778c60e0908152503480156200004957600080fd5b50604051620054213803806200542183398181016040528101906200006f91906200025a565b8280600060016101000a81548173ffffffffffffffffffffffffffffffffffffffff021916908373ffffffffffffffffffffffffffffffffffffffff1602179055505060016000806101000a81548160ff021916908360ff1602179055508173ffffffffffffffffffffffffffffffffffffffff1660808173ffffffffffffffffffffffffffffffffffffffff16815250508073ffffffffffffffffffffffffffffffffffffffff1660a08173ffffffffffffffffffffffffffffffffffffffff1681525050505050620002b6565b600080fd5b600073ffffffffffffffffffffffffffffffffffffffff82169050919050565b6000620001708262000143565b9050919050565b6000620001848262000163565b9050919050565b620001968162000177565b8114620001a257600080fd5b50565b600081519050620001b6816200018b565b92915050565b6000620001c98262000163565b9050919050565b620001db81620001bc565b8114620001e757600080fd5b50565b600081519050620001fb81620001d0565b92915050565b60006200020e8262000143565b9050919050565b6000620002228262000201565b9050919050565b620002348162000215565b81146200024057600080fd5b50565b600081519050620002548162000229565b92915050565b6000806000606084860312156200027657620002756200013e565b5b60006200028686828701620001a5565b93505060206200029986828701620001ea565b9250506040620002ac8682870162000243565b9150509250925092565b60805160a05160c05160e0516150d66200034b600039600061079d0152600081816116110152818161163a015281816117a8015281816124aa015281816125c801526125f10152600081816116a101528181611ad301528181611ffd015261261f0152600081816109a801528181610bf501528181610cd401528181610dcd015281816126ce01526130df01526150d66000f3fe6080604052600436106101665760003560e01c8063934857bb116100d1578063d8ce16f41161008a578063ea3092d111610064578063ea3092d11461054b578063f321df4914610588578063f4d70e78146105b3578063ffe09241146105f057610166565b8063d8ce16f4146104ba578063e49e49bf146104f7578063e92aa0ce1461052257610166565b8063934857bb146103965780639cbed340146103d3578063a9ef4d69146103fc578063abd149dc14610427578063ae4d0bed14610452578063cff0b6481461047d57610166565b8063356ff5a511610123578063356ff5a51461029f5780633b5ecefa146102bb57806354fd4d50146102fd57806375c9871514610328578063809784c5146103515780638e481d601461037a57610166565b8063017df5221461016b57806306eaa68b146101a857806319ef22b2146101e5578063232de7161461020e57806328b105fd1461024b5780632f1fbf9b14610276575b600080fd5b34801561017757600080fd5b50610192600480360381019061018d919061341e565b6105fa565b60405161019f9190613464565b60405180910390f35b3480156101b457600080fd5b506101cf60048036038101906101ca91906135fb565b61063e565b6040516101dc9190613666565b60405180910390f35b3480156101f157600080fd5b5061020c600480360381019061020791906136b7565b610679565b005b34801561021a57600080fd5b50610235600480360381019061023091906135fb565b610760565b6040516102429190613712565b60405180910390f35b34801561025757600080fd5b5061026061079b565b60405161026d919061373c565b60405180910390f35b34801561028257600080fd5b5061029d6004803603810190610298919061341e565b6107bf565b005b6102b960048036038101906102b49190613757565b610ba8565b005b3480156102c757600080fd5b506102e260048036038101906102dd91906137be565b6113aa565b6040516102f49695949392919061380d565b60405180910390f35b34801561030957600080fd5b5061031261156a565b60405161031f919061388a565b60405180910390f35b34801561033457600080fd5b5061034f600480360381019061034a9190613905565b61157b565b005b34801561035d57600080fd5b506103786004803603810190610373919061341e565b611581565b005b610394600480360381019061038f9190613979565b6118cb565b005b3480156103a257600080fd5b506103bd60048036038101906103b891906139f1565b611ced565b6040516103ca9190613c32565b60405180910390f35b3480156103df57600080fd5b506103fa60048036038101906103f5919061341e565b611e2d565b005b34801561040857600080fd5b50610411611f3a565b60405161041e9190613c54565b60405180910390f35b34801561043357600080fd5b5061043c611ffb565b6040516104499190613cce565b60405180910390f35b34801561045e57600080fd5b5061046761201f565b6040516104749190613c54565b60405180910390f35b34801561048957600080fd5b506104a4600480360381019061049f9190613ce9565b61204f565b6040516104b19190613666565b60405180910390f35b3480156104c657600080fd5b506104e160048036038101906104dc9190613d5e565b6120fb565b6040516104ee9190613eab565b60405180910390f35b34801561050357600080fd5b5061050c6124a8565b6040516105199190613c54565b60405180910390f35b34801561052e57600080fd5b5061054960048036038101906105449190613ec7565b6124cc565b005b34801561055757600080fd5b50610572600480360381019061056d919061341e565b612579565b60405161057f9190613712565b60405180910390f35b34801561059457600080fd5b5061059d6126cc565b6040516105aa9190613f3a565b60405180910390f35b3480156105bf57600080fd5b506105da60048036038101906105d591906135fb565b6126f0565b6040516105e79190613c54565b60405180910390f35b6105f861272b565b005b6000600161062d836040516020016106129190613ff4565b6040516020818303038152906040528051906020012061272d565b6106379190614049565b9050919050565b6000610671838360405160200161065692919061416d565b604051602081830303815290604052805190602001206127d1565b905092915050565b600061068483612875565b905061069181600261297e565b6106d4816040516020016106a5919061424e565b60405160208183030381529060405280519060200120600260068111156106cf576106ce61427f565b5b612c65565b610704816040516020016106e891906142fa565b6040516020818303038152906040528051906020012083612c65565b600260068111156107185761071761427f565b5b8373ffffffffffffffffffffffffffffffffffffffff167fc9c043637725967252aedd2704cc65fee962e7b8a1e3cf8098587a66601e50c560405160405180910390a3505050565b6000610793838360405160200161077892919061416d565b60405160208183030381529060405280519060200120612cf8565b905092915050565b7f000000000000000000000000000000000000000000000000000000000000000081565b60006107ca826105fa565b90507fffffffffffffffffffffffffffffffffffffffffffffffffffffffffffffffff8103610825576040517fd2fc63e300000000000000000000000000000000000000000000000000000000815260040160405180910390fd5b60006108568260405160200161083b9190614377565b604051602081830303815290604052805190602001206127d1565b90508073ffffffffffffffffffffffffffffffffffffffff163373ffffffffffffffffffffffffffffffffffffffff16146108bd576040517f47418db100000000000000000000000000000000000000000000000000000000815260040160405180910390fd5b6108c882600461297e565b61090b826040516020016108dc919061424e565b60405160208183030381529060405280519060200120600460068111156109065761090561427f565b5b612c65565b600061094b6040518060400160405280600581526020017f5661756c74000000000000000000000000000000000000000000000000000000815250612d9c565b9050600061097e8460405160200161096391906143f4565b6040516020818303038152906040528051906020012061272d565b90506000811115610a19578173ffffffffffffffffffffffffffffffffffffffff166301e33667847f0000000000000000000000000000000000000000000000000000000000000000846040518463ffffffff1660e01b81526004016109e693929190614425565b600060405180830381600087803b158015610a0057600080fd5b505af1158015610a14573d6000803e3d6000fd5b505050505b6000610a4a85604051602001610a2f91906144a8565b6040516020818303038152906040528051906020012061272d565b90506000610a7d86604051602001610a629190614525565b6040516020818303038152906040528051906020012061272d565b905060008183610a8d9190614556565b90508473ffffffffffffffffffffffffffffffffffffffff16630eb8d896826040518263ffffffff1660e01b8152600401610ac89190613c54565b600060405180830381600087803b158015610ae257600080fd5b505af1158015610af6573d6000803e3d6000fd5b5050505060008673ffffffffffffffffffffffffffffffffffffffff1682604051610b20906145dd565b60006040518083038185875af1925050503d8060008114610b5d576040519150601f19603f3d011682016040523d82523d6000602084013e610b62565b606091505b5050905080610b9d576040517f9d60fd7500000000000000000000000000000000000000000000000000000000815260040160405180910390fd5b505050505050505050565b6000610be86040518060400160405280600581526020017f5661756c74000000000000000000000000000000000000000000000000000000815250612d9c565b90506000821115610e3d577f000000000000000000000000000000000000000000000000000000000000000073ffffffffffffffffffffffffffffffffffffffff166323b872dd3330856040518463ffffffff1660e01b8152600401610c50939291906145f2565b6020604051808303816000875af1158015610c6f573d6000803e3d6000fd5b505050506040513d601f19601f82011682018060405250810190610c939190614655565b610cd2576040517f08c379a0000000000000000000000000000000000000000000000000000000008152600401610cc990614705565b60405180910390fd5b7f000000000000000000000000000000000000000000000000000000000000000073ffffffffffffffffffffffffffffffffffffffff1663095ea7b382846040518363ffffffff1660e01b8152600401610d2d929190614725565b6020604051808303816000875af1158015610d4c573d6000803e3d6000fd5b505050506040513d601f19601f82011682018060405250810190610d709190614655565b610daf576040517f08c379a0000000000000000000000000000000000000000000000000000000008152600401610da6906147c0565b60405180910390fd5b8073ffffffffffffffffffffffffffffffffffffffff1663f44429587f0000000000000000000000000000000000000000000000000000000000000000846040518363ffffffff1660e01b8152600401610e0a92919061482c565b600060405180830381600087803b158015610e2457600080fd5b505af1158015610e38573d6000803e3d6000fd5b505050505b8073ffffffffffffffffffffffffffffffffffffffff166324056867346040518263ffffffff1660e01b81526004016000604051808303818588803b158015610e8557600080fd5b505af1158015610e99573d6000803e3d6000fd5b50505050506000610ea9866105fa565b90507fffffffffffffffffffffffffffffffffffffffffffffffffffffffffffffffff811461100857610edd81600061297e565b610f0e81604051602001610ef191906142fa565b604051602081830303815290604052805190602001206000612c65565b610f3f81604051602001610f2291906148b4565b604051602081830303815290604052805190602001206000612c65565b610f7081604051602001610f539190614931565b604051602081830303815290604052805190602001206000612c65565b610fa181604051602001610f8491906149ae565b604051602081830303815290604052805190602001206000612c65565b610fd281604051602001610fb59190614525565b604051602081830303815290604052805190602001206000612c65565b61100381604051602001610fe69190614a2b565b604051602081830303815290604052805190602001206000612c65565b611034565b6110317fe0350abf7e528889b5822fca885fa12de74628619c3752923dd9ec3ce44e460261272d565b90505b60006110746040518060400160405280600f81526020017f4d756c74697369674d616e616765720000000000000000000000000000000000815250612d9c565b905060008173ffffffffffffffffffffffffffffffffffffffff1663867533e66040518163ffffffff1660e01b8152600401602060405180830381865afa1580156110c3573d6000803e3d6000fd5b505050506040513d601f19601f820116820180604052508101906110e79190614a71565b9050600073ffffffffffffffffffffffffffffffffffffffff168173ffffffffffffffffffffffffffffffffffffffff160361114f576040517fc2bd570700000000000000000000000000000000000000000000000000000000815260040160405180910390fd5b61117f836040516020016111639190614aea565b6040516020818303038152906040528051906020012089612e48565b6111c283604051602001611193919061424e565b60405160208183030381529060405280519060200120600060068111156111bd576111bc61427f565b5b612c65565b6111f2836040516020016111d69190614b67565b6040516020818303038152906040528051906020012088612c65565b611222836040516020016112069190614be4565b6040516020818303038152906040528051906020012082612e48565b611252836040516020016112369190614377565b6040516020818303038152906040528051906020012033612e48565b6112828360405160200161126691906144a8565b6040516020818303038152906040528051906020012034612c65565b6112b2836040516020016112969190614c61565b6040516020818303038152906040528051906020012087612c65565b6112e2836040516020016112c691906143f4565b6040516020818303038152906040528051906020012086612c65565b61131e886040516020016112f69190613ff4565b604051602081830303815290604052805190602001206001856113199190614c92565b612c65565b6113497fe0350abf7e528889b5822fca885fa12de74628619c3752923dd9ec3ce44e46026001612edb565b6000600681111561135d5761135c61427f565b5b8873ffffffffffffffffffffffffffffffffffffffff167fc9c043637725967252aedd2704cc65fee962e7b8a1e3cf8098587a66601e50c560405160405180910390a35050505050505050565b60008060008060008060006113de7fe0350abf7e528889b5822fca885fa12de74628619c3752923dd9ec3ce44e460261272d565b90506000888a6113ee9190614556565b9050818111806113fe5750600089145b15611407578190505b60008a90505b8181101561155d576000611420826120fb565b9050600060068111156114365761143561427f565b5b81602001510361145357898061144b90614d26565b9a5050611549565b600160068111156114675761146661427f565b5b81602001510361148457888061147c90614d26565b995050611548565b600260068111156114985761149761427f565b5b8160200151036114b55787806114ad90614d26565b985050611547565b600360068111156114c9576114c861427f565b5b8160200151036114e65786806114de90614d26565b975050611546565b600460068111156114fa576114f961427f565b5b81602001510361151757858061150f90614d26565b965050611545565b6005600681111561152b5761152a61427f565b5b81602001510361154457848061154090614d26565b9550505b5b5b5b5b5b50808061155590614d26565b91505061140d565b5050509295509295509295565b60008054906101000a900460ff1681565b50505050565b600061158c82612875565b905061159981600161297e565b60006115d96040518060400160405280600581526020017f5661756c74000000000000000000000000000000000000000000000000000000815250612d9c565b905060008061160d846040516020016115f291906144a8565b6040516020818303038152906040528051906020012061272d565b90507f000000000000000000000000000000000000000000000000000000000000000081101561166657807f00000000000000000000000000000000000000000000000000000000000000006116639190614d6e565b91505b600082111561172b5761169f846040516020016116839190614931565b6040516020818303038152906040528051906020012083612c65565b7f000000000000000000000000000000000000000000000000000000000000000073ffffffffffffffffffffffffffffffffffffffff1663efe441d9836040518263ffffffff1660e01b81526004016116f89190613c54565b600060405180830381600087803b15801561171257600080fd5b505af1158015611726573d6000803e3d6000fd5b505050505b8273ffffffffffffffffffffffffffffffffffffffff16630eb8d896826040518263ffffffff1660e01b81526004016117649190613c54565b600060405180830381600087803b15801561177e57600080fd5b505af1158015611792573d6000803e3d6000fd5b50505050600082826117a49190614556565b90507f0000000000000000000000000000000000000000000000000000000000000000811015611800576040517f1d2edfdc00000000000000000000000000000000000000000000000000000000815260040160405180910390fd5b61184385604051602001611814919061424e565b604051602081830303815290604052805190602001206001600681111561183e5761183d61427f565b5b612c65565b600160068111156118575761185661427f565b5b8673ffffffffffffffffffffffffffffffffffffffff167fc9c043637725967252aedd2704cc65fee962e7b8a1e3cf8098587a66601e50c560405160405180910390a36118c3813373ffffffffffffffffffffffffffffffffffffffff16612f6e90919063ffffffff16565b505050505050565b60006118d684612875565b90506118e381600361297e565b6000611914826040516020016118f991906142fa565b6040516020818303038152906040528051906020012061272d565b9050808411158061192457504284115b1561195b576040517f38af65f700000000000000000000000000000000000000000000000000000000815260040160405180910390fd5b600061198c8360405160200161197191906144a8565b6040516020818303038152906040528051906020012061272d565b905060006119bf846040516020016119a49190614931565b6040516020818303038152906040528051906020012061272d565b9050600081836119cf9190614556565b905085816119dd9190614556565b3414611a15576040517f2c5211c600000000000000000000000000000000000000000000000000000000815260040160405180910390fd5b611a5885604051602001611a29919061424e565b6040516020818303038152906040528051906020012060036006811115611a5357611a5261427f565b5b612c65565b611a8885604051602001611a6c91906148b4565b6040516020818303038152906040528051906020012088612c65565b611ab885604051602001611a9c91906149ae565b6040516020818303038152906040528051906020012087612c65565b600080831115611b6b57600287611acf9190614dd1565b90507f000000000000000000000000000000000000000000000000000000000000000073ffffffffffffffffffffffffffffffffffffffff1663383dcbc48285611b199190614556565b85846040518463ffffffff1660e01b8152600401611b38929190614e02565b6000604051808303818588803b158015611b5157600080fd5b505af1158015611b65573d6000803e3d6000fd5b50505050505b60008188611b799190614d6e565b9050611bab87604051602001611b8f9190614525565b6040516020818303038152906040528051906020012082612c65565b611bdb87604051602001611bbf9190614a2b565b6040516020818303038152906040528051906020012083612c65565b6000611c1b6040518060400160405280600581526020017f5661756c74000000000000000000000000000000000000000000000000000000815250612d9c565b90508073ffffffffffffffffffffffffffffffffffffffff1663240568678388611c459190614556565b6040518263ffffffff1660e01b81526004016000604051808303818588803b158015611c7057600080fd5b505af1158015611c84573d6000803e3d6000fd5b505050505060036006811115611c9d57611c9c61427f565b5b8b73ffffffffffffffffffffffffffffffffffffffff167fc9c043637725967252aedd2704cc65fee962e7b8a1e3cf8098587a66601e50c560405160405180910390a35050505050505050505050565b60606000611d1a7fe0350abf7e528889b5822fca885fa12de74628619c3752923dd9ec3ce44e460261272d565b905060008385611d2a9190614556565b905081811180611d3a5750600084145b15611d43578190505b8481611d4f9190614d6e565b67ffffffffffffffff811115611d6857611d676134d0565b5b604051908082528060200260200182016040528015611da157816020015b611d8e6132fb565b815260200190600190039081611d865790505b5092506000808690505b82811015611e1f576000611dbe826120fb565b9050886006811115611dd357611dd261427f565b5b816020015103611e0b5780868481518110611df157611df0614e2b565b5b60200260200101819052508280611e0790614d26565b9350505b508080611e1790614d26565b915050611dab565b508084525050509392505050565b6000611e38826105fa565b90507fffffffffffffffffffffffffffffffffffffffffffffffffffffffffffffffff8103611e93576040517fd2fc63e300000000000000000000000000000000000000000000000000000000815260040160405180910390fd5b6000611ec482604051602001611ea99190614377565b604051602081830303815290604052805190602001206127d1565b90508073ffffffffffffffffffffffffffffffffffffffff163373ffffffffffffffffffffffffffffffffffffffff1614611f2b576040517f896e7ee800000000000000000000000000000000000000000000000000000000815260040160405180910390fd5b611f358383612fc1565b505050565b600080611f7b6040518060400160405280600581526020017f5661756c74000000000000000000000000000000000000000000000000000000815250612d9c565b90508073ffffffffffffffffffffffffffffffffffffffff166335ee5f876040518163ffffffff1660e01b8152600401611fb490614ea6565b602060405180830381865afa158015611fd1573d6000803e3d6000fd5b505050506040513d601f19601f82011682018060405250810190611ff59190614edb565b91505090565b7f000000000000000000000000000000000000000000000000000000000000000081565b600061204a7fe0350abf7e528889b5822fca885fa12de74628619c3752923dd9ec3ce44e460261272d565b905090565b600080612081836040516020016120669190614f54565b604051602081830303815290604052805190602001206127d1565b9050600073ffffffffffffffffffffffffffffffffffffffff168173ffffffffffffffffffffffffffffffffffffffff16036120f2576040517f08c379a00000000000000000000000000000000000000000000000000000000081526004016120e990614fc2565b60405180910390fd5b80915050919050565b6121036132fb565b612132826040516020016121179190614aea565b604051602081830303815290604052805190602001206127d1565b816000019073ffffffffffffffffffffffffffffffffffffffff16908173ffffffffffffffffffffffffffffffffffffffff16815250506121988260405160200161217d919061424e565b6040516020818303038152906040528051906020012061272d565b8160200181815250506121d0826040516020016121b59190614b67565b6040516020818303038152906040528051906020012061272d565b816040018181525050612208826040516020016121ed91906142fa565b6040516020818303038152906040528051906020012061272d565b8160600181815250506122408260405160200161222591906148b4565b6040516020818303038152906040528051906020012061272d565b8160800181815250506122788260405160200161225d9190614c61565b6040516020818303038152906040528051906020012061272d565b8160a00181815250506122b08260405160200161229591906143f4565b6040516020818303038152906040528051906020012061272d565b8160c00181815250506122e8826040516020016122cd91906144a8565b6040516020818303038152906040528051906020012061272d565b8160e0018181525050612320826040516020016123059190614931565b6040516020818303038152906040528051906020012061272d565b816101000181815250506123598260405160200161233e91906149ae565b6040516020818303038152906040528051906020012061272d565b81610120018181525050612392826040516020016123779190614525565b6040516020818303038152906040528051906020012061272d565b816101400181815250506123cb826040516020016123b09190614a2b565b6040516020818303038152906040528051906020012061272d565b81610160018181525050612404826040516020016123e99190614be4565b604051602081830303815290604052805190602001206127d1565b816101a0019073ffffffffffffffffffffffffffffffffffffffff16908173ffffffffffffffffffffffffffffffffffffffff168152505061246b826040516020016124509190614377565b604051602081830303815290604052805190602001206127d1565b81610180019073ffffffffffffffffffffffffffffffffffffffff16908173ffffffffffffffffffffffffffffffffffffffff1681525050919050565b7f000000000000000000000000000000000000000000000000000000000000000081565b60006124d7836105fa565b90507fffffffffffffffffffffffffffffffffffffffffffffffffffffffffffffffff8103612532576040517fd2fc63e300000000000000000000000000000000000000000000000000000000815260040160405180910390fd5b61257481604051602001612546919061424e565b6040516020818303038152906040528051906020012083600681111561256f5761256e61427f565b5b612c65565b505050565b60008061258583612875565b905061259281600161297e565b6000806125c4836040516020016125a991906144a8565b6040516020818303038152906040528051906020012061272d565b90507f000000000000000000000000000000000000000000000000000000000000000081101561261d57807f000000000000000000000000000000000000000000000000000000000000000061261a9190614d6e565b91505b7f000000000000000000000000000000000000000000000000000000000000000073ffffffffffffffffffffffffffffffffffffffff1663be13733c6040518163ffffffff1660e01b8152600401602060405180830381865afa158015612688573d6000803e3d6000fd5b505050506040513d601f19601f820116820180604052508101906126ac9190614edb565b8211156126bf57600093505050506126c7565b600193505050505b919050565b7f000000000000000000000000000000000000000000000000000000000000000081565b6000612723838360405160200161270892919061416d565b6040516020818303038152906040528051906020012061272d565b905092915050565b565b60008060019054906101000a900473ffffffffffffffffffffffffffffffffffffffff1673ffffffffffffffffffffffffffffffffffffffff1663bd02d0f5836040518263ffffffff1660e01b8152600401612789919061373c565b602060405180830381865afa1580156127a6573d6000803e3d6000fd5b505050506040513d601f19601f820116820180604052508101906127ca9190614edb565b9050919050565b60008060019054906101000a900473ffffffffffffffffffffffffffffffffffffffff1673ffffffffffffffffffffffffffffffffffffffff166321f8a721836040518263ffffffff1660e01b815260040161282d919061373c565b602060405180830381865afa15801561284a573d6000803e3d6000fd5b505050506040513d601f19601f8201168201806040525081019061286e9190614a71565b9050919050565b600080612881836105fa565b90507fffffffffffffffffffffffffffffffffffffffffffffffffffffffffffffffff81036128dc576040517fd2fc63e300000000000000000000000000000000000000000000000000000000815260040160405180910390fd5b600061290d826040516020016128f29190614be4565b604051602081830303815290604052805190602001206127d1565b90508073ffffffffffffffffffffffffffffffffffffffff163373ffffffffffffffffffffffffffffffffffffffff1614612974576040517fc2bd570700000000000000000000000000000000000000000000000000000000815260040160405180910390fd5b8192505050919050565b600082604051602001612991919061424e565b60405160208183030381529060405280519060200120905060006129b48261272d565b60068111156129c6576129c561427f565b5b905060008060068111156129dd576129dc61427f565b5b8260068111156129f0576129ef61427f565b5b03612a535760016006811115612a0957612a0861427f565b5b846006811115612a1c57612a1b61427f565b5b1480612a4c575060056006811115612a3757612a3661427f565b5b846006811115612a4a57612a4961427f565b5b145b9050612c27565b60016006811115612a6757612a6661427f565b5b826006811115612a7a57612a7961427f565b5b03612add5760026006811115612a9357612a9261427f565b5b846006811115612aa657612aa561427f565b5b1480612ad6575060056006811115612ac157612ac061427f565b5b846006811115612ad457612ad361427f565b5b145b9050612c26565b60026006811115612af157612af061427f565b5b826006811115612b0457612b0361427f565b5b03612b385760036006811115612b1d57612b1c61427f565b5b846006811115612b3057612b2f61427f565b5b149050612c25565b60036006811115612b4c57612b4b61427f565b5b826006811115612b5f57612b5e61427f565b5b03612b935760046006811115612b7857612b7761427f565b5b846006811115612b8b57612b8a61427f565b5b149050612c24565b60046006811115612ba757612ba661427f565b5b826006811115612bba57612bb961427f565b5b1480612bea575060056006811115612bd557612bd461427f565b5b826006811115612be857612be761427f565b5b145b15612c1e5760006006811115612c0357612c0261427f565b5b846006811115612c1657612c1561427f565b5b149050612c23565b600090505b5b5b5b5b80612c5e576040517f8f9a780c00000000000000000000000000000000000000000000000000000000815260040160405180910390fd5b5050505050565b600060019054906101000a900473ffffffffffffffffffffffffffffffffffffffff1673ffffffffffffffffffffffffffffffffffffffff1663e2a4853a83836040518363ffffffff1660e01b8152600401612cc2929190614fe2565b600060405180830381600087803b158015612cdc57600080fd5b505af1158015612cf0573d6000803e3d6000fd5b505050505050565b60008060019054906101000a900473ffffffffffffffffffffffffffffffffffffffff1673ffffffffffffffffffffffffffffffffffffffff16637ae1cfca836040518263ffffffff1660e01b8152600401612d54919061373c565b602060405180830381865afa158015612d71573d6000803e3d6000fd5b505050506040513d601f19601f82011682018060405250810190612d959190614655565b9050919050565b600080612dce83604051602001612db39190614f54565b604051602081830303815290604052805190602001206127d1565b9050600073ffffffffffffffffffffffffffffffffffffffff168173ffffffffffffffffffffffffffffffffffffffff1603612e3f576040517f08c379a0000000000000000000000000000000000000000000000000000000008152600401612e3690614fc2565b60405180910390fd5b80915050919050565b600060019054906101000a900473ffffffffffffffffffffffffffffffffffffffff1673ffffffffffffffffffffffffffffffffffffffff1663ca446dd983836040518363ffffffff1660e01b8152600401612ea592919061500b565b600060405180830381600087803b158015612ebf57600080fd5b505af1158015612ed3573d6000803e3d6000fd5b505050505050565b600060019054906101000a900473ffffffffffffffffffffffffffffffffffffffff1673ffffffffffffffffffffffffffffffffffffffff1663adb353dc83836040518363ffffffff1660e01b8152600401612f38929190614fe2565b600060405180830381600087803b158015612f5257600080fd5b505af1158015612f66573d6000803e3d6000fd5b505050505050565b600080600080600085875af1905080612fbc576040517f08c379a0000000000000000000000000000000000000000000000000000000008152600401612fb390615080565b60405180910390fd5b505050565b612fcc81600561297e565b61300f81604051602001612fe0919061424e565b604051602081830303815290604052805190602001206005600681111561300a5761300961427f565b5b612c65565b600061304f6040518060400160405280600581526020017f5661756c74000000000000000000000000000000000000000000000000000000815250612d9c565b90506000613082836040516020016130679190614377565b604051602081830303815290604052805190602001206127d1565b905060006130b58460405160200161309a91906143f4565b6040516020818303038152906040528051906020012061272d565b90506000811115613150578273ffffffffffffffffffffffffffffffffffffffff166301e33667837f0000000000000000000000000000000000000000000000000000000000000000846040518463ffffffff1660e01b815260040161311d93929190614425565b600060405180830381600087803b15801561313757600080fd5b505af115801561314b573d6000803e3d6000fd5b505050505b60006131818560405160200161316691906144a8565b6040516020818303038152906040528051906020012061272d565b9050600081111561329c578373ffffffffffffffffffffffffffffffffffffffff16630eb8d896826040518263ffffffff1660e01b81526004016131c59190613c54565b600060405180830381600087803b1580156131df57600080fd5b505af11580156131f3573d6000803e3d6000fd5b5050505060008373ffffffffffffffffffffffffffffffffffffffff168260405161321d906145dd565b60006040518083038185875af1925050503d806000811461325a576040519150601f19603f3d011682016040523d82523d6000602084013e61325f565b606091505b505090508061329a576040517f9d60fd7500000000000000000000000000000000000000000000000000000000815260040160405180910390fd5b505b600560068111156132b0576132af61427f565b5b8673ffffffffffffffffffffffffffffffffffffffff167fc9c043637725967252aedd2704cc65fee962e7b8a1e3cf8098587a66601e50c560405160405180910390a3505050505050565b604051806101c00160405280600073ffffffffffffffffffffffffffffffffffffffff1681526020016000815260200160008152602001600081526020016000815260200160008152602001600081526020016000815260200160008152602001600081526020016000815260200160008152602001600073ffffffffffffffffffffffffffffffffffffffff168152602001600073ffffffffffffffffffffffffffffffffffffffff1681525090565b6000604051905090565b600080fd5b600080fd5b600073ffffffffffffffffffffffffffffffffffffffff82169050919050565b60006133eb826133c0565b9050919050565b6133fb816133e0565b811461340657600080fd5b50565b600081359050613418816133f2565b92915050565b600060208284031215613434576134336133b6565b5b600061344284828501613409565b91505092915050565b6000819050919050565b61345e8161344b565b82525050565b60006020820190506134796000830184613455565b92915050565b6000819050919050565b6134928161347f565b811461349d57600080fd5b50565b6000813590506134af81613489565b92915050565b600080fd5b600080fd5b6000601f19601f8301169050919050565b7f4e487b7100000000000000000000000000000000000000000000000000000000600052604160045260246000fd5b613508826134bf565b810181811067ffffffffffffffff82111715613527576135266134d0565b5b80604052505050565b600061353a6133ac565b905061354682826134ff565b919050565b600067ffffffffffffffff821115613566576135656134d0565b5b61356f826134bf565b9050602081019050919050565b82818337600083830152505050565b600061359e6135998461354b565b613530565b9050828152602081018484840111156135ba576135b96134ba565b5b6135c584828561357c565b509392505050565b600082601f8301126135e2576135e16134b5565b5b81356135f284826020860161358b565b91505092915050565b60008060408385031215613612576136116133b6565b5b6000613620858286016134a0565b925050602083013567ffffffffffffffff811115613641576136406133bb565b5b61364d858286016135cd565b9150509250929050565b613660816133e0565b82525050565b600060208201905061367b6000830184613657565b92915050565b6000819050919050565b61369481613681565b811461369f57600080fd5b50565b6000813590506136b18161368b565b92915050565b600080604083850312156136ce576136cd6133b6565b5b60006136dc85828601613409565b92505060206136ed858286016136a2565b9150509250929050565b60008115159050919050565b61370c816136f7565b82525050565b60006020820190506137276000830184613703565b92915050565b6137368161347f565b82525050565b6000602082019050613751600083018461372d565b92915050565b60008060008060808587031215613771576137706133b6565b5b600061377f87828801613409565b9450506020613790878288016136a2565b93505060406137a1878288016136a2565b92505060606137b2878288016136a2565b91505092959194509250565b600080604083850312156137d5576137d46133b6565b5b60006137e3858286016136a2565b92505060206137f4858286016136a2565b9150509250929050565b61380781613681565b82525050565b600060c08201905061382260008301896137fe565b61382f60208301886137fe565b61383c60408301876137fe565b61384960608301866137fe565b61385660808301856137fe565b61386360a08301846137fe565b979650505050505050565b600060ff82169050919050565b6138848161386e565b82525050565b600060208201905061389f600083018461387b565b92915050565b600080fd5b600080fd5b60008083601f8401126138c5576138c46134b5565b5b8235905067ffffffffffffffff8111156138e2576138e16138a5565b5b6020830191508360018202830111156138fe576138fd6138aa565b5b9250929050565b6000806000806060858703121561391f5761391e6133b6565b5b600061392d87828801613409565b945050602061393e878288016136a2565b935050604085013567ffffffffffffffff81111561395f5761395e6133bb565b5b61396b878288016138af565b925092505092959194509250565b600080600060608486031215613992576139916133b6565b5b60006139a086828701613409565b93505060206139b1868287016136a2565b92505060406139c2868287016136a2565b9150509250925092565b600781106139d957600080fd5b50565b6000813590506139eb816139cc565b92915050565b600080600060608486031215613a0a57613a096133b6565b5b6000613a18868287016139dc565b9350506020613a29868287016136a2565b9250506040613a3a868287016136a2565b9150509250925092565b600081519050919050565b600082825260208201905092915050565b6000819050602082019050919050565b613a79816133e0565b82525050565b613a8881613681565b82525050565b6101c082016000820151613aa56000850182613a70565b506020820151613ab86020850182613a7f565b506040820151613acb6040850182613a7f565b506060820151613ade6060850182613a7f565b506080820151613af16080850182613a7f565b5060a0820151613b0460a0850182613a7f565b5060c0820151613b1760c0850182613a7f565b5060e0820151613b2a60e0850182613a7f565b50610100820151613b3f610100850182613a7f565b50610120820151613b54610120850182613a7f565b50610140820151613b69610140850182613a7f565b50610160820151613b7e610160850182613a7f565b50610180820151613b93610180850182613a70565b506101a0820151613ba86101a0850182613a70565b50505050565b6000613bba8383613a8e565b6101c08301905092915050565b6000602082019050919050565b6000613bdf82613a44565b613be98185613a4f565b9350613bf483613a60565b8060005b83811015613c25578151613c0c8882613bae565b9750613c1783613bc7565b925050600181019050613bf8565b5085935050505092915050565b60006020820190508181036000830152613c4c8184613bd4565b905092915050565b6000602082019050613c6960008301846137fe565b92915050565b6000819050919050565b6000613c94613c8f613c8a846133c0565b613c6f565b6133c0565b9050919050565b6000613ca682613c79565b9050919050565b6000613cb882613c9b565b9050919050565b613cc881613cad565b82525050565b6000602082019050613ce36000830184613cbf565b92915050565b600060208284031215613cff57613cfe6133b6565b5b600082013567ffffffffffffffff811115613d1d57613d1c6133bb565b5b613d29848285016135cd565b91505092915050565b613d3b8161344b565b8114613d4657600080fd5b50565b600081359050613d5881613d32565b92915050565b600060208284031215613d7457613d736133b6565b5b6000613d8284828501613d49565b91505092915050565b6101c082016000820151613da26000850182613a70565b506020820151613db56020850182613a7f565b506040820151613dc86040850182613a7f565b506060820151613ddb6060850182613a7f565b506080820151613dee6080850182613a7f565b5060a0820151613e0160a0850182613a7f565b5060c0820151613e1460c0850182613a7f565b5060e0820151613e2760e0850182613a7f565b50610100820151613e3c610100850182613a7f565b50610120820151613e51610120850182613a7f565b50610140820151613e66610140850182613a7f565b50610160820151613e7b610160850182613a7f565b50610180820151613e90610180850182613a70565b506101a0820151613ea56101a0850182613a70565b50505050565b60006101c082019050613ec16000830184613d8b565b92915050565b60008060408385031215613ede57613edd6133b6565b5b6000613eec85828601613409565b9250506020613efd858286016139dc565b9150509250929050565b6000613f1282613c79565b9050919050565b6000613f2482613f07565b9050919050565b613f3481613f19565b82525050565b6000602082019050613f4f6000830184613f2b565b92915050565b600081905092915050565b7f6d696e69706f6f6c2e696e646578000000000000000000000000000000000000600082015250565b6000613f96600e83613f55565b9150613fa182613f60565b600e82019050919050565b60008160601b9050919050565b6000613fc482613fac565b9050919050565b6000613fd682613fb9565b9050919050565b613fee613fe9826133e0565b613fcb565b82525050565b6000613fff82613f89565b915061400b8284613fdd565b60148201915081905092915050565b7f4e487b7100000000000000000000000000000000000000000000000000000000600052601160045260246000fd5b60006140548261344b565b915061405f8361344b565b9250827f80000000000000000000000000000000000000000000000000000000000000000182126000841215161561409a5761409961401a565b5b827f7fffffffffffffffffffffffffffffffffffffffffffffffffffffffffffffff0182136000841216156140d2576140d161401a565b5b828203905092915050565b6000819050919050565b6140f86140f38261347f565b6140dd565b82525050565b600081519050919050565b60005b8381101561412757808201518184015260208101905061410c565b83811115614136576000848401525b50505050565b6000614147826140fe565b6141518185613f55565b9350614161818560208601614109565b80840191505092915050565b600061417982856140e7565b602082019150614189828461413c565b91508190509392505050565b7f6d696e69706f6f6c2e6974656d00000000000000000000000000000000000000600082015250565b60006141cb600d83613f55565b91506141d682614195565b600d82019050919050565b6000819050919050565b6141fc6141f78261344b565b6141e1565b82525050565b7f2e73746174757300000000000000000000000000000000000000000000000000600082015250565b6000614238600783613f55565b915061424382614202565b600782019050919050565b6000614259826141be565b915061426582846141eb565b6020820191506142748261422b565b915081905092915050565b7f4e487b7100000000000000000000000000000000000000000000000000000000600052602160045260246000fd5b7f2e737461727454696d6500000000000000000000000000000000000000000000600082015250565b60006142e4600a83613f55565b91506142ef826142ae565b600a82019050919050565b6000614305826141be565b915061431182846141eb565b602082019150614320826142d7565b915081905092915050565b7f2e6f776e65720000000000000000000000000000000000000000000000000000600082015250565b6000614361600683613f55565b915061436c8261432b565b600682019050919050565b6000614382826141be565b915061438e82846141eb565b60208201915061439d82614354565b915081905092915050565b7f2e676770426f6e64416d74000000000000000000000000000000000000000000600082015250565b60006143de600b83613f55565b91506143e9826143a8565b600b82019050919050565b60006143ff826141be565b915061440b82846141eb565b60208201915061441a826143d1565b915081905092915050565b600060608201905061443a6000830186613657565b6144476020830185613f2b565b61445460408301846137fe565b949350505050565b7f2e617661784e6f64654f70416d74000000000000000000000000000000000000600082015250565b6000614492600e83613f55565b915061449d8261445c565b600e82019050919050565b60006144b3826141be565b91506144bf82846141eb565b6020820191506144ce82614485565b915081905092915050565b7f2e617661784e6f64654f70526577617264416d74000000000000000000000000600082015250565b600061450f601483613f55565b915061451a826144d9565b601482019050919050565b6000614530826141be565b915061453c82846141eb565b60208201915061454b82614502565b915081905092915050565b600061456182613681565b915061456c83613681565b9250827fffffffffffffffffffffffffffffffffffffffffffffffffffffffffffffffff038211156145a1576145a061401a565b5b828201905092915050565b600081905092915050565b50565b60006145c76000836145ac565b91506145d2826145b7565b600082019050919050565b60006145e8826145ba565b9150819050919050565b60006060820190506146076000830186613657565b6146146020830185613657565b61462160408301846137fe565b949350505050565b614632816136f7565b811461463d57600080fd5b50565b60008151905061464f81614629565b92915050565b60006020828403121561466b5761466a6133b6565b5b600061467984828501614640565b91505092915050565b600082825260208201905092915050565b7f436f756c64206e6f74207472616e736665722047475020746f204d696e69506f60008201527f6f6c20636f6e7472616374000000000000000000000000000000000000000000602082015250565b60006146ef602b83614682565b91506146fa82614693565b604082019050919050565b6000602082019050818103600083015261471e816146e2565b9050919050565b600060408201905061473a6000830185613657565b61474760208301846137fe565b9392505050565b7f436f756c64206e6f7420617070726f7665207661756c7420474750206465706f60008201527f7369740000000000000000000000000000000000000000000000000000000000602082015250565b60006147aa602383614682565b91506147b58261474e565b604082019050919050565b600060208201905081810360008301526147d98161479d565b9050919050565b7f4d696e69706f6f6c4d616e616765720000000000000000000000000000000000600082015250565b6000614816600f83614682565b9150614821826147e0565b602082019050919050565b6000606082019050818103600083015261484581614809565b90506148546020830185613f2b565b61486160408301846137fe565b9392505050565b7f2e656e6454696d65000000000000000000000000000000000000000000000000600082015250565b600061489e600883613f55565b91506148a982614868565b600882019050919050565b60006148bf826141be565b91506148cb82846141eb565b6020820191506148da82614891565b915081905092915050565b7f2e6176617855736572416d740000000000000000000000000000000000000000600082015250565b600061491b600c83613f55565b9150614926826148e5565b600c82019050919050565b600061493c826141be565b915061494882846141eb565b6020820191506149578261490e565b915081905092915050565b7f2e61766178546f74616c526577617264416d7400000000000000000000000000600082015250565b6000614998601383613f55565b91506149a382614962565b601382019050919050565b60006149b9826141be565b91506149c582846141eb565b6020820191506149d48261498b565b915081905092915050565b7f2e6176617855736572526577617264416d740000000000000000000000000000600082015250565b6000614a15601283613f55565b9150614a20826149df565b601282019050919050565b6000614a36826141be565b9150614a4282846141eb565b602082019150614a5182614a08565b915081905092915050565b600081519050614a6b816133f2565b92915050565b600060208284031215614a8757614a866133b6565b5b6000614a9584828501614a5c565b91505092915050565b7f2e6e6f6465494400000000000000000000000000000000000000000000000000600082015250565b6000614ad4600783613f55565b9150614adf82614a9e565b600782019050919050565b6000614af5826141be565b9150614b0182846141eb565b602082019150614b1082614ac7565b915081905092915050565b7f2e6475726174696f6e0000000000000000000000000000000000000000000000600082015250565b6000614b51600983613f55565b9150614b5c82614b1b565b600982019050919050565b6000614b72826141be565b9150614b7e82846141eb565b602082019150614b8d82614b44565b915081905092915050565b7f2e6d756c74697369674164647200000000000000000000000000000000000000600082015250565b6000614bce600d83613f55565b9150614bd982614b98565b600d82019050919050565b6000614bef826141be565b9150614bfb82846141eb565b602082019150614c0a82614bc1565b915081905092915050565b7f2e64656c65676174696f6e466565000000000000000000000000000000000000600082015250565b6000614c4b600e83613f55565b9150614c5682614c15565b600e82019050919050565b6000614c6c826141be565b9150614c7882846141eb565b602082019150614c8782614c3e565b915081905092915050565b6000614c9d8261344b565b9150614ca88361344b565b9250817f7fffffffffffffffffffffffffffffffffffffffffffffffffffffffffffffff03831360008312151615614ce357614ce261401a565b5b817f8000000000000000000000000000000000000000000000000000000000000000038312600083121615614d1b57614d1a61401a565b5b828201905092915050565b6000614d3182613681565b91507fffffffffffffffffffffffffffffffffffffffffffffffffffffffffffffffff8203614d6357614d6261401a565b5b600182019050919050565b6000614d7982613681565b9150614d8483613681565b925082821015614d9757614d9661401a565b5b828203905092915050565b7f4e487b7100000000000000000000000000000000000000000000000000000000600052601260045260246000fd5b6000614ddc82613681565b9150614de783613681565b925082614df757614df6614da2565b5b828204905092915050565b6000604082019050614e1760008301856137fe565b614e2460208301846137fe565b9392505050565b7f4e487b7100000000000000000000000000000000000000000000000000000000600052603260045260246000fd5b7f546f6b656e676741564158000000000000000000000000000000000000000000600082015250565b6000614e90600b83614682565b9150614e9b82614e5a565b602082019050919050565b60006020820190508181036000830152614ebf81614e83565b9050919050565b600081519050614ed58161368b565b92915050565b600060208284031215614ef157614ef06133b6565b5b6000614eff84828501614ec6565b91505092915050565b7f636f6e74726163742e6164647265737300000000000000000000000000000000600082015250565b6000614f3e601083613f55565b9150614f4982614f08565b601082019050919050565b6000614f5f82614f31565b9150614f6b828461413c565b915081905092915050565b7f436f6e7472616374206e6f7420666f756e640000000000000000000000000000600082015250565b6000614fac601283614682565b9150614fb782614f76565b602082019050919050565b60006020820190508181036000830152614fdb81614f9f565b9050919050565b6000604082019050614ff7600083018561372d565b61500460208301846137fe565b9392505050565b6000604082019050615020600083018561372d565b61502d6020830184613657565b9392505050565b7f4554485f5452414e534645525f4641494c454400000000000000000000000000600082015250565b600061506a601383614682565b915061507582615034565b602082019050919050565b600060208201905081810360008301526150998161505d565b905091905056fea264697066735822122016f7a5f04a9e091232aba7634b1b1acd59ce6c6f8aa234d7bda9bf326a05c06664736f6c634300080d0033",
  "linkReferences": {},
  "deployedLinkReferences": {}
}