{
  "_format": "hh-sol-artifact-1",
  "contractName": "TokenggAVAX",
  "sourceName": "contracts/contract/tokens/TokenggAVAX.sol",
  "abi": [
    {
      "inputs": [
        {
          "internalType": "contract Storage",
          "name": "storageAddress",
          "type": "address"
        },
        {
          "internalType": "contract ERC20",
          "name": "asset",
          "type": "address"
        }
      ],
      "stateMutability": "nonpayable",
      "type": "constructor"
    },
    {
      "inputs": [],
      "name": "SyncError",
      "type": "error"
    },
    {
      "inputs": [],
      "name": "TodoBetterMsg",
      "type": "error"
    },
    {
      "inputs": [],
      "name": "WithdrawAmountTooLarge",
      "type": "error"
    },
    {
      "inputs": [],
      "name": "ZeroShares",
      "type": "error"
    },
    {
      "anonymous": false,
      "inputs": [
        {
          "indexed": true,
          "internalType": "address",
          "name": "owner",
          "type": "address"
        },
        {
          "indexed": true,
          "internalType": "address",
          "name": "spender",
          "type": "address"
        },
        {
          "indexed": false,
          "internalType": "uint256",
          "name": "amount",
          "type": "uint256"
        }
      ],
      "name": "Approval",
      "type": "event"
    },
    {
      "anonymous": false,
      "inputs": [
        {
          "indexed": true,
          "internalType": "address",
          "name": "caller",
          "type": "address"
        },
        {
          "indexed": true,
          "internalType": "address",
          "name": "owner",
          "type": "address"
        },
        {
          "indexed": false,
          "internalType": "uint256",
          "name": "assets",
          "type": "uint256"
        },
        {
          "indexed": false,
          "internalType": "uint256",
          "name": "shares",
          "type": "uint256"
        }
      ],
      "name": "Deposit",
      "type": "event"
    },
    {
      "anonymous": false,
      "inputs": [
        {
          "indexed": true,
          "internalType": "address",
          "name": "caller",
          "type": "address"
        },
        {
          "indexed": false,
          "internalType": "uint256",
          "name": "baseAmt",
          "type": "uint256"
        },
        {
          "indexed": false,
          "internalType": "uint256",
          "name": "rewardAmt",
          "type": "uint256"
        }
      ],
      "name": "DepositFromStaking",
      "type": "event"
    },
    {
      "anonymous": false,
      "inputs": [
        {
          "indexed": true,
          "internalType": "uint32",
          "name": "cycleEnd",
          "type": "uint32"
        },
        {
          "indexed": false,
          "internalType": "uint256",
          "name": "rewardAmount",
          "type": "uint256"
        }
      ],
      "name": "NewRewardsCycle",
      "type": "event"
    },
    {
      "anonymous": false,
      "inputs": [
        {
          "indexed": true,
          "internalType": "address",
          "name": "user",
          "type": "address"
        },
        {
          "indexed": false,
          "internalType": "uint256",
          "name": "newTargetFloatPercent",
          "type": "uint256"
        }
      ],
      "name": "TargetFloatPercentUpdated",
      "type": "event"
    },
    {
      "anonymous": false,
      "inputs": [
        {
          "indexed": true,
          "internalType": "address",
          "name": "from",
          "type": "address"
        },
        {
          "indexed": true,
          "internalType": "address",
          "name": "to",
          "type": "address"
        },
        {
          "indexed": false,
          "internalType": "uint256",
          "name": "amount",
          "type": "uint256"
        }
      ],
      "name": "Transfer",
      "type": "event"
    },
    {
      "anonymous": false,
      "inputs": [
        {
          "indexed": true,
          "internalType": "address",
          "name": "caller",
          "type": "address"
        },
        {
          "indexed": true,
          "internalType": "address",
          "name": "receiver",
          "type": "address"
        },
        {
          "indexed": true,
          "internalType": "address",
          "name": "owner",
          "type": "address"
        },
        {
          "indexed": false,
          "internalType": "uint256",
          "name": "assets",
          "type": "uint256"
        },
        {
          "indexed": false,
          "internalType": "uint256",
          "name": "shares",
          "type": "uint256"
        }
      ],
      "name": "Withdraw",
      "type": "event"
    },
    {
      "anonymous": false,
      "inputs": [
        {
          "indexed": true,
          "internalType": "address",
          "name": "caller",
          "type": "address"
        },
        {
          "indexed": false,
          "internalType": "uint256",
          "name": "assets",
          "type": "uint256"
        }
      ],
      "name": "WithdrawForStaking",
      "type": "event"
    },
    {
      "inputs": [],
      "name": "DOMAIN_SEPARATOR",
      "outputs": [
        {
          "internalType": "bytes32",
          "name": "",
          "type": "bytes32"
        }
      ],
      "stateMutability": "view",
      "type": "function"
    },
    {
      "inputs": [
        {
          "internalType": "address",
          "name": "",
          "type": "address"
        },
        {
          "internalType": "address",
          "name": "",
          "type": "address"
        }
      ],
      "name": "allowance",
      "outputs": [
        {
          "internalType": "uint256",
          "name": "",
          "type": "uint256"
        }
      ],
      "stateMutability": "view",
      "type": "function"
    },
    {
      "inputs": [],
      "name": "amountAvailableForStaking",
      "outputs": [
        {
          "internalType": "uint256",
          "name": "",
          "type": "uint256"
        }
      ],
      "stateMutability": "view",
      "type": "function"
    },
    {
      "inputs": [
        {
          "internalType": "address",
          "name": "spender",
          "type": "address"
        },
        {
          "internalType": "uint256",
          "name": "amount",
          "type": "uint256"
        }
      ],
      "name": "approve",
      "outputs": [
        {
          "internalType": "bool",
          "name": "",
          "type": "bool"
        }
      ],
      "stateMutability": "nonpayable",
      "type": "function"
    },
    {
      "inputs": [],
      "name": "asset",
      "outputs": [
        {
          "internalType": "contract ERC20",
          "name": "",
          "type": "address"
        }
      ],
      "stateMutability": "view",
      "type": "function"
    },
    {
      "inputs": [
        {
          "internalType": "address",
          "name": "",
          "type": "address"
        }
      ],
      "name": "balanceOf",
      "outputs": [
        {
          "internalType": "uint256",
          "name": "",
          "type": "uint256"
        }
      ],
      "stateMutability": "view",
      "type": "function"
    },
    {
      "inputs": [
        {
          "internalType": "uint256",
          "name": "shares",
          "type": "uint256"
        }
      ],
      "name": "convertToAssets",
      "outputs": [
        {
          "internalType": "uint256",
          "name": "",
          "type": "uint256"
        }
      ],
      "stateMutability": "view",
      "type": "function"
    },
    {
      "inputs": [
        {
          "internalType": "uint256",
          "name": "assets",
          "type": "uint256"
        }
      ],
      "name": "convertToShares",
      "outputs": [
        {
          "internalType": "uint256",
          "name": "",
          "type": "uint256"
        }
      ],
      "stateMutability": "view",
      "type": "function"
    },
    {
      "inputs": [],
      "name": "decimals",
      "outputs": [
        {
          "internalType": "uint8",
          "name": "",
          "type": "uint8"
        }
      ],
      "stateMutability": "view",
      "type": "function"
    },
    {
      "inputs": [
        {
          "internalType": "uint256",
          "name": "assets",
          "type": "uint256"
        },
        {
          "internalType": "address",
          "name": "receiver",
          "type": "address"
        }
      ],
      "name": "deposit",
      "outputs": [
        {
          "internalType": "uint256",
          "name": "shares",
          "type": "uint256"
        }
      ],
      "stateMutability": "nonpayable",
      "type": "function"
    },
    {
      "inputs": [],
      "name": "depositAVAX",
      "outputs": [
        {
          "internalType": "uint256",
          "name": "shares",
          "type": "uint256"
        }
      ],
      "stateMutability": "payable",
      "type": "function"
    },
    {
      "inputs": [
        {
          "internalType": "uint256",
          "name": "baseAmt",
          "type": "uint256"
        },
        {
          "internalType": "uint256",
          "name": "rewardAmt",
          "type": "uint256"
        }
      ],
      "name": "depositFromStaking",
      "outputs": [],
      "stateMutability": "payable",
      "type": "function"
    },
    {
      "inputs": [
        {
          "internalType": "string",
          "name": "_contractName",
          "type": "string"
        }
      ],
      "name": "getPublicContractAddress",
      "outputs": [
        {
          "internalType": "address",
          "name": "",
          "type": "address"
        }
      ],
      "stateMutability": "view",
      "type": "function"
    },
    {
      "inputs": [
        {
          "internalType": "bytes32",
          "name": "settingNameSpace",
          "type": "bytes32"
        },
        {
          "internalType": "string",
          "name": "_settingPath",
          "type": "string"
        }
      ],
      "name": "getSettingAddress",
      "outputs": [
        {
          "internalType": "address",
          "name": "",
          "type": "address"
        }
      ],
      "stateMutability": "view",
      "type": "function"
    },
    {
      "inputs": [
        {
          "internalType": "bytes32",
          "name": "settingNameSpace",
          "type": "bytes32"
        },
        {
          "internalType": "string",
          "name": "_settingPath",
          "type": "string"
        }
      ],
      "name": "getSettingBool",
      "outputs": [
        {
          "internalType": "bool",
          "name": "",
          "type": "bool"
        }
      ],
      "stateMutability": "view",
      "type": "function"
    },
    {
      "inputs": [
        {
          "internalType": "bytes32",
          "name": "settingNameSpace",
          "type": "bytes32"
        },
        {
          "internalType": "string",
          "name": "_settingPath",
          "type": "string"
        }
      ],
      "name": "getSettingUint",
      "outputs": [
        {
          "internalType": "uint256",
          "name": "",
          "type": "uint256"
        }
      ],
      "stateMutability": "view",
      "type": "function"
    },
    {
      "inputs": [],
      "name": "lastRewardAmount",
      "outputs": [
        {
          "internalType": "uint192",
          "name": "",
          "type": "uint192"
        }
      ],
      "stateMutability": "view",
      "type": "function"
    },
    {
      "inputs": [],
      "name": "lastSync",
      "outputs": [
        {
          "internalType": "uint32",
          "name": "",
          "type": "uint32"
        }
      ],
      "stateMutability": "view",
      "type": "function"
    },
    {
      "inputs": [
        {
          "internalType": "address",
          "name": "",
          "type": "address"
        }
      ],
      "name": "maxDeposit",
      "outputs": [
        {
          "internalType": "uint256",
          "name": "",
          "type": "uint256"
        }
      ],
      "stateMutability": "view",
      "type": "function"
    },
    {
      "inputs": [
        {
          "internalType": "address",
          "name": "",
          "type": "address"
        }
      ],
      "name": "maxMint",
      "outputs": [
        {
          "internalType": "uint256",
          "name": "",
          "type": "uint256"
        }
      ],
      "stateMutability": "view",
      "type": "function"
    },
    {
      "inputs": [
        {
          "internalType": "address",
          "name": "owner",
          "type": "address"
        }
      ],
      "name": "maxRedeem",
      "outputs": [
        {
          "internalType": "uint256",
          "name": "",
          "type": "uint256"
        }
      ],
      "stateMutability": "view",
      "type": "function"
    },
    {
      "inputs": [
        {
          "internalType": "address",
          "name": "owner",
          "type": "address"
        }
      ],
      "name": "maxWithdraw",
      "outputs": [
        {
          "internalType": "uint256",
          "name": "",
          "type": "uint256"
        }
      ],
      "stateMutability": "view",
      "type": "function"
    },
    {
      "inputs": [
        {
          "internalType": "uint256",
          "name": "shares",
          "type": "uint256"
        },
        {
          "internalType": "address",
          "name": "receiver",
          "type": "address"
        }
      ],
      "name": "mint",
      "outputs": [
        {
          "internalType": "uint256",
          "name": "assets",
          "type": "uint256"
        }
      ],
      "stateMutability": "nonpayable",
      "type": "function"
    },
    {
      "inputs": [],
      "name": "name",
      "outputs": [
        {
          "internalType": "string",
          "name": "",
          "type": "string"
        }
      ],
      "stateMutability": "view",
      "type": "function"
    },
    {
      "inputs": [
        {
          "internalType": "address",
          "name": "",
          "type": "address"
        }
      ],
      "name": "nonces",
      "outputs": [
        {
          "internalType": "uint256",
          "name": "",
          "type": "uint256"
        }
      ],
      "stateMutability": "view",
      "type": "function"
    },
    {
      "inputs": [
        {
          "internalType": "address",
          "name": "owner",
          "type": "address"
        },
        {
          "internalType": "address",
          "name": "spender",
          "type": "address"
        },
        {
          "internalType": "uint256",
          "name": "value",
          "type": "uint256"
        },
        {
          "internalType": "uint256",
          "name": "deadline",
          "type": "uint256"
        },
        {
          "internalType": "uint8",
          "name": "v",
          "type": "uint8"
        },
        {
          "internalType": "bytes32",
          "name": "r",
          "type": "bytes32"
        },
        {
          "internalType": "bytes32",
          "name": "s",
          "type": "bytes32"
        }
      ],
      "name": "permit",
      "outputs": [],
      "stateMutability": "nonpayable",
      "type": "function"
    },
    {
      "inputs": [
        {
          "internalType": "uint256",
          "name": "assets",
          "type": "uint256"
        }
      ],
      "name": "previewDeposit",
      "outputs": [
        {
          "internalType": "uint256",
          "name": "",
          "type": "uint256"
        }
      ],
      "stateMutability": "view",
      "type": "function"
    },
    {
      "inputs": [
        {
          "internalType": "uint256",
          "name": "shares",
          "type": "uint256"
        }
      ],
      "name": "previewMint",
      "outputs": [
        {
          "internalType": "uint256",
          "name": "",
          "type": "uint256"
        }
      ],
      "stateMutability": "view",
      "type": "function"
    },
    {
      "inputs": [
        {
          "internalType": "uint256",
          "name": "shares",
          "type": "uint256"
        }
      ],
      "name": "previewRedeem",
      "outputs": [
        {
          "internalType": "uint256",
          "name": "",
          "type": "uint256"
        }
      ],
      "stateMutability": "view",
      "type": "function"
    },
    {
      "inputs": [
        {
          "internalType": "uint256",
          "name": "assets",
          "type": "uint256"
        }
      ],
      "name": "previewWithdraw",
      "outputs": [
        {
          "internalType": "uint256",
          "name": "",
          "type": "uint256"
        }
      ],
      "stateMutability": "view",
      "type": "function"
    },
    {
      "inputs": [
        {
          "internalType": "uint256",
          "name": "shares",
          "type": "uint256"
        },
        {
          "internalType": "address",
          "name": "receiver",
          "type": "address"
        },
        {
          "internalType": "address",
          "name": "owner",
          "type": "address"
        }
      ],
      "name": "redeem",
      "outputs": [
        {
          "internalType": "uint256",
          "name": "assets",
          "type": "uint256"
        }
      ],
      "stateMutability": "nonpayable",
      "type": "function"
    },
    {
      "inputs": [
        {
          "internalType": "uint256",
          "name": "shares",
          "type": "uint256"
        }
      ],
      "name": "redeemAVAX",
      "outputs": [
        {
          "internalType": "uint256",
          "name": "assets",
          "type": "uint256"
        }
      ],
      "stateMutability": "nonpayable",
      "type": "function"
    },
    {
      "inputs": [],
      "name": "rewardsCycleEnd",
      "outputs": [
        {
          "internalType": "uint32",
          "name": "",
          "type": "uint32"
        }
      ],
      "stateMutability": "view",
      "type": "function"
    },
    {
      "inputs": [],
      "name": "rewardsCycleLength",
      "outputs": [
        {
          "internalType": "uint32",
          "name": "",
          "type": "uint32"
        }
      ],
      "stateMutability": "view",
      "type": "function"
    },
    {
      "inputs": [
        {
          "internalType": "uint256",
          "name": "newTargetFloatPercent",
          "type": "uint256"
        }
      ],
      "name": "setTargetFloatPercent",
      "outputs": [],
      "stateMutability": "nonpayable",
      "type": "function"
    },
    {
      "inputs": [],
      "name": "stakingTotalAssets",
      "outputs": [
        {
          "internalType": "uint256",
          "name": "",
          "type": "uint256"
        }
      ],
      "stateMutability": "view",
      "type": "function"
    },
    {
      "inputs": [],
      "name": "symbol",
      "outputs": [
        {
          "internalType": "string",
          "name": "",
          "type": "string"
        }
      ],
      "stateMutability": "view",
      "type": "function"
    },
    {
      "inputs": [],
      "name": "syncRewards",
      "outputs": [],
      "stateMutability": "nonpayable",
      "type": "function"
    },
    {
      "inputs": [],
      "name": "targetFloatPercent",
      "outputs": [
        {
          "internalType": "uint256",
          "name": "",
          "type": "uint256"
        }
      ],
      "stateMutability": "view",
      "type": "function"
    },
    {
      "inputs": [],
      "name": "totalAssets",
      "outputs": [
        {
          "internalType": "uint256",
          "name": "",
          "type": "uint256"
        }
      ],
      "stateMutability": "view",
      "type": "function"
    },
    {
      "inputs": [],
      "name": "totalFloat",
      "outputs": [
        {
          "internalType": "uint256",
          "name": "",
          "type": "uint256"
        }
      ],
      "stateMutability": "view",
      "type": "function"
    },
    {
      "inputs": [],
      "name": "totalReleasedAssets",
      "outputs": [
        {
          "internalType": "uint256",
          "name": "",
          "type": "uint256"
        }
      ],
      "stateMutability": "view",
      "type": "function"
    },
    {
      "inputs": [],
      "name": "totalSupply",
      "outputs": [
        {
          "internalType": "uint256",
          "name": "",
          "type": "uint256"
        }
      ],
      "stateMutability": "view",
      "type": "function"
    },
    {
      "inputs": [
        {
          "internalType": "address",
          "name": "to",
          "type": "address"
        },
        {
          "internalType": "uint256",
          "name": "amount",
          "type": "uint256"
        }
      ],
      "name": "transfer",
      "outputs": [
        {
          "internalType": "bool",
          "name": "",
          "type": "bool"
        }
      ],
      "stateMutability": "nonpayable",
      "type": "function"
    },
    {
      "inputs": [
        {
          "internalType": "address",
          "name": "from",
          "type": "address"
        },
        {
          "internalType": "address",
          "name": "to",
          "type": "address"
        },
        {
          "internalType": "uint256",
          "name": "amount",
          "type": "uint256"
        }
      ],
      "name": "transferFrom",
      "outputs": [
        {
          "internalType": "bool",
          "name": "",
          "type": "bool"
        }
      ],
      "stateMutability": "nonpayable",
      "type": "function"
    },
    {
      "inputs": [],
      "name": "version",
      "outputs": [
        {
          "internalType": "uint8",
          "name": "",
          "type": "uint8"
        }
      ],
      "stateMutability": "view",
      "type": "function"
    },
    {
      "inputs": [
        {
          "internalType": "uint256",
          "name": "assets",
          "type": "uint256"
        },
        {
          "internalType": "address",
          "name": "receiver",
          "type": "address"
        },
        {
          "internalType": "address",
          "name": "owner",
          "type": "address"
        }
      ],
      "name": "withdraw",
      "outputs": [
        {
          "internalType": "uint256",
          "name": "shares",
          "type": "uint256"
        }
      ],
      "stateMutability": "nonpayable",
      "type": "function"
    },
    {
      "inputs": [
        {
          "internalType": "uint256",
          "name": "assets",
          "type": "uint256"
        }
      ],
      "name": "withdrawAVAX",
      "outputs": [
        {
          "internalType": "uint256",
          "name": "shares",
          "type": "uint256"
        }
      ],
      "stateMutability": "nonpayable",
      "type": "function"
    },
    {
      "inputs": [
        {
          "internalType": "uint256",
          "name": "assets",
          "type": "uint256"
        }
      ],
      "name": "withdrawForStaking",
      "outputs": [],
      "stateMutability": "nonpayable",
      "type": "function"
    },
    {
      "stateMutability": "payable",
      "type": "receive"
    }
  ],
  "bytecode": "0x6101006040523480156200001257600080fd5b5060405162004f9738038062004f978339818101604052810190620000389190620004de565b806040518060400160405280601d81526020017f476f476f506f6f6c204c6971756964205374616b696e6720546f6b656e0000008152506040518060400160405280600681526020017f676741564158000000000000000000000000000000000000000000000000000081525081818473ffffffffffffffffffffffffffffffffffffffff1663313ce5676040518163ffffffff1660e01b8152600401602060405180830381865afa158015620000f3573d6000803e3d6000fd5b505050506040513d601f19601f8201168201806040525081019062000119919062000563565b8780600060016101000a81548173ffffffffffffffffffffffffffffffffffffffff021916908373ffffffffffffffffffffffffffffffffffffffff160217905550508260019080519060200190620001749291906200036b565b5081600290805190602001906200018d9291906200036b565b508060ff1660808160ff16815250504660a08181525050620001b4620002bf60201b60201c565b60c081815250505050508273ffffffffffffffffffffffffffffffffffffffff1660e08173ffffffffffffffffffffffffffffffffffffffff168152505050505060016000806101000a81548160ff021916908360ff16021790555062127500600760006101000a81548163ffffffff021916908363ffffffff160217905550600760009054906101000a900463ffffffff16600760009054906101000a900463ffffffff1662000270426200034f60201b62002d561760201c565b6200027c919062000603565b6200028891906200063b565b600760086101000a81548163ffffffff021916908363ffffffff16021790555067016345785d8a0000600b8190555050506200084c565b60007f8b73c3c69bb8fe3d512ecc4cf759cc79239f7b179b0ffacaa9a75d522b39400f6001604051620002f391906200078f565b60405180910390207fc89efdaa54c0f20c7adf612882df0950f5a951637e0307cdcb4c672f298b8bc6463060405160200162000334959493929190620007ef565b60405160208183030381529060405280519060200120905090565b600064010000000082106200036357600080fd5b819050919050565b8280546200037990620006af565b90600052602060002090601f0160209004810192826200039d5760008555620003e9565b82601f10620003b857805160ff1916838001178555620003e9565b82800160010185558215620003e9579182015b82811115620003e8578251825591602001919060010190620003cb565b5b509050620003f89190620003fc565b5090565b5b8082111562000417576000816000905550600101620003fd565b5090565b600080fd5b600073ffffffffffffffffffffffffffffffffffffffff82169050919050565b60006200044d8262000420565b9050919050565b6000620004618262000440565b9050919050565b620004738162000454565b81146200047f57600080fd5b50565b600081519050620004938162000468565b92915050565b6000620004a68262000440565b9050919050565b620004b88162000499565b8114620004c457600080fd5b50565b600081519050620004d881620004ad565b92915050565b60008060408385031215620004f857620004f76200041b565b5b6000620005088582860162000482565b92505060206200051b85828601620004c7565b9150509250929050565b600060ff82169050919050565b6200053d8162000525565b81146200054957600080fd5b50565b6000815190506200055d8162000532565b92915050565b6000602082840312156200057c576200057b6200041b565b5b60006200058c848285016200054c565b91505092915050565b600063ffffffff82169050919050565b7f4e487b7100000000000000000000000000000000000000000000000000000000600052601260045260246000fd5b7f4e487b7100000000000000000000000000000000000000000000000000000000600052601160045260246000fd5b6000620006108262000595565b91506200061d8362000595565b92508262000630576200062f620005a5565b5b828204905092915050565b6000620006488262000595565b9150620006558362000595565b92508163ffffffff0483118215151615620006755762000674620005d4565b5b828202905092915050565b7f4e487b7100000000000000000000000000000000000000000000000000000000600052602260045260246000fd5b60006002820490506001821680620006c857607f821691505b602082108103620006de57620006dd62000680565b5b50919050565b600081905092915050565b60008190508160005260206000209050919050565b600081546200071381620006af565b6200071f8186620006e4565b945060018216600081146200073d57600181146200074f5762000786565b60ff1983168652818601935062000786565b6200075a85620006ef565b60005b838110156200077e578154818901526001820191506020810190506200075d565b838801955050505b50505092915050565b60006200079d828462000704565b915081905092915050565b6000819050919050565b620007bd81620007a8565b82525050565b6000819050919050565b620007d881620007c3565b82525050565b620007e98162000440565b82525050565b600060a082019050620008066000830188620007b2565b620008156020830187620007b2565b620008246040830186620007b2565b620008336060830185620007cd565b620008426080830184620007de565b9695505050505050565b60805160a05160c05160e0516146bd620008da600039600081816102b9015281816111140152818161154f0152818161162501528181611707015281816118ba01528181611ad501528181611c7601528181611f290152818161222b015281816124c9015281816125e60152612c28015260006114b8015260006114840152600061145e01526146bd6000f3fe6080604052600436106102b25760003560e01c80637ecebe0011610175578063be13733c116100dc578063d505accf11610095578063e7ff69f11161006f578063e7ff69f114610c25578063ef8b30f714610c50578063efe441d914610c8d578063f4d70e7814610cb657610315565b8063d505accf14610b82578063d905777e14610bab578063dd62ed3e14610be857610315565b8063be13733c14610a38578063beff2bb514610a63578063c63d75b614610a8e578063c6e6f59214610acb578063ce96cb7714610b08578063cff0b64814610b4557610315565b8063aeb5cd5e1161012e578063aeb5cd5e146108f0578063b3d7f6b91461092d578063b460af941461096a578063ba087652146109a7578063bafedcaa146109e4578063bd662f8814610a0f57610315565b80637ecebe00146107c5578063841219e51461080257806394bf804d1461082d57806395d89b411461086a578063a0d065c314610895578063a9059cbb146108b357610315565b80633644e5151161021957806354fd4d50116101d257806354fd4d50146106b35780636917516b146106de5780636e553f65146107095780636fcf5e5f1461074657806370a082311461077157806372c0c211146107ae57610315565b80633644e5151461059c578063383dcbc4146105c757806338d52e0f146105e3578063402d267d1461060e5780634cdad5061461064b5780634ff8a0811461068857610315565b80631685a0891161026b5780631685a0891461046457806318160ddd146104a15780631c693478146104cc578063232de716146104f757806323b872dd14610534578063313ce5671461057157610315565b806301e1d1141461031a57806306eaa68b1461034557806306fdde031461038257806307a2d13a146103ad578063095ea7b3146103ea5780630a28a4771461042757610315565b36610315577f000000000000000000000000000000000000000000000000000000000000000073ffffffffffffffffffffffffffffffffffffffff163373ffffffffffffffffffffffffffffffffffffffff1614610313576103126133f2565b5b005b600080fd5b34801561032657600080fd5b5061032f610cf3565b60405161033c919061343a565b60405180910390f35b34801561035157600080fd5b5061036c600480360381019061036791906135e5565b610e00565b6040516103799190613682565b60405180910390f35b34801561038e57600080fd5b50610397610e3b565b6040516103a49190613725565b60405180910390f35b3480156103b957600080fd5b506103d460048036038101906103cf9190613773565b610ec9565b6040516103e1919061343a565b60405180910390f35b3480156103f657600080fd5b50610411600480360381019061040c91906137cc565b610f04565b60405161041e9190613827565b60405180910390f35b34801561043357600080fd5b5061044e60048036038101906104499190613773565b610ff6565b60405161045b919061343a565b60405180910390f35b34801561047057600080fd5b5061048b60048036038101906104869190613773565b611031565b604051610498919061343a565b60405180910390f35b3480156104ad57600080fd5b506104b66111cb565b6040516104c3919061343a565b60405180910390f35b3480156104d857600080fd5b506104e16111d1565b6040516104ee919061343a565b60405180910390f35b34801561050357600080fd5b5061051e600480360381019061051991906135e5565b6111d7565b60405161052b9190613827565b60405180910390f35b34801561054057600080fd5b5061055b60048036038101906105569190613842565b611212565b6040516105689190613827565b60405180910390f35b34801561057d57600080fd5b5061058661145c565b60405161059391906138b1565b60405180910390f35b3480156105a857600080fd5b506105b1611480565b6040516105be91906138db565b60405180910390f35b6105e160048036038101906105dc91906138f6565b6114dd565b005b3480156105ef57600080fd5b506105f8611623565b6040516106059190613995565b60405180910390f35b34801561061a57600080fd5b50610635600480360381019061063091906139b0565b611647565b604051610642919061343a565b60405180910390f35b34801561065757600080fd5b50610672600480360381019061066d9190613773565b611671565b60405161067f919061343a565b60405180910390f35b34801561069457600080fd5b5061069d611683565b6040516106aa919061343a565b60405180910390f35b3480156106bf57600080fd5b506106c8611689565b6040516106d591906138b1565b60405180910390f35b3480156106ea57600080fd5b506106f361169a565b60405161070091906139fc565b60405180910390f35b34801561071557600080fd5b50610730600480360381019061072b9190613a17565b6116b0565b60405161073d919061343a565b60405180910390f35b34801561075257600080fd5b5061075b6117cd565b60405161076891906139fc565b60405180910390f35b34801561077d57600080fd5b50610798600480360381019061079391906139b0565b6117e3565b6040516107a5919061343a565b60405180910390f35b3480156107ba57600080fd5b506107c36117fb565b005b3480156107d157600080fd5b506107ec60048036038101906107e791906139b0565b611a99565b6040516107f9919061343a565b60405180910390f35b34801561080e57600080fd5b50610817611ab1565b604051610824919061343a565b60405180910390f35b34801561083957600080fd5b50610854600480360381019061084f9190613a17565b611ac0565b604051610861919061343a565b60405180910390f35b34801561087657600080fd5b5061087f611b9b565b60405161088c9190613725565b60405180910390f35b61089d611c29565b6040516108aa919061343a565b60405180910390f35b3480156108bf57600080fd5b506108da60048036038101906108d591906137cc565b611d74565b6040516108e79190613827565b60405180910390f35b3480156108fc57600080fd5b5061091760048036038101906109129190613773565b611e88565b604051610924919061343a565b60405180910390f35b34801561093957600080fd5b50610954600480360381019061094f9190613773565b611fe0565b604051610961919061343a565b60405180910390f35b34801561097657600080fd5b50610991600480360381019061098c9190613a57565b61201b565b60405161099e919061343a565b60405180910390f35b3480156109b357600080fd5b506109ce60048036038101906109c99190613a57565b612276565b6040516109db919061343a565b60405180910390f35b3480156109f057600080fd5b506109f9612514565b604051610a069190613add565b60405180910390f35b348015610a1b57600080fd5b50610a366004803603810190610a319190613773565b61253e565b005b348015610a4457600080fd5b50610a4d6125e1565b604051610a5a919061343a565b60405180910390f35b348015610a6f57600080fd5b50610a78612687565b604051610a85919061343a565b60405180910390f35b348015610a9a57600080fd5b50610ab56004803603810190610ab091906139b0565b61268d565b604051610ac2919061343a565b60405180910390f35b348015610ad757600080fd5b50610af26004803603810190610aed9190613773565b6126b7565b604051610aff919061343a565b60405180910390f35b348015610b1457600080fd5b50610b2f6004803603810190610b2a91906139b0565b6126f2565b604051610b3c919061343a565b60405180910390f35b348015610b5157600080fd5b50610b6c6004803603810190610b679190613af8565b612743565b604051610b799190613682565b60405180910390f35b348015610b8e57600080fd5b50610ba96004803603810190610ba49190613b6d565b6127ef565b005b348015610bb757600080fd5b50610bd26004803603810190610bcd91906139b0565b612ae8565b604051610bdf919061343a565b60405180910390f35b348015610bf457600080fd5b50610c0f6004803603810190610c0a9190613c0f565b612b31565b604051610c1c919061343a565b60405180910390f35b348015610c3157600080fd5b50610c3a612b56565b604051610c4791906139fc565b60405180910390f35b348015610c5c57600080fd5b50610c776004803603810190610c729190613773565b612b6c565b604051610c84919061343a565b60405180910390f35b348015610c9957600080fd5b50610cb46004803603810190610caf9190613773565b612b7e565b005b348015610cc257600080fd5b50610cdd6004803603810190610cd891906135e5565b612d1b565b604051610cea919061343a565b60405180910390f35b60008060095490506000600860009054906101000a900477ffffffffffffffffffffffffffffffffffffffffffffffff1690506000600760089054906101000a900463ffffffff1690506000600760049054906101000a900463ffffffff1690508163ffffffff164210610d92578277ffffffffffffffffffffffffffffffffffffffffffffffff1684610d879190613c7e565b945050505050610dfd565b60008183610da09190613cd4565b63ffffffff168263ffffffff1642610db89190613d08565b8577ffffffffffffffffffffffffffffffffffffffffffffffff16610ddd9190613d3c565b610de79190613dc5565b90508085610df59190613c7e565b955050505050505b90565b6000610e338383604051602001610e18929190613e53565b60405160208183030381529060405280519060200120612d71565b905092915050565b60018054610e4890613eaa565b80601f0160208091040260200160405190810160405280929190818152602001828054610e7490613eaa565b8015610ec15780601f10610e9657610100808354040283529160200191610ec1565b820191906000526020600020905b815481529060010190602001808311610ea457829003601f168201915b505050505081565b600080600354905060008114610efa57610ef5610ee4610cf3565b8285612e159092919063ffffffff16565b610efc565b825b915050919050565b600081600560003373ffffffffffffffffffffffffffffffffffffffff1673ffffffffffffffffffffffffffffffffffffffff16815260200190815260200160002060008573ffffffffffffffffffffffffffffffffffffffff1673ffffffffffffffffffffffffffffffffffffffff168152602001908152602001600020819055508273ffffffffffffffffffffffffffffffffffffffff163373ffffffffffffffffffffffffffffffffffffffff167f8c5be1e5ebec7d5bd14f71427d1e84f3dd0314c0f7b2291e5b200ac8c7c3b92584604051610fe4919061343a565b60405180910390a36001905092915050565b6000806003549050600081146110275761102281611012610cf3565b85612e3d9092919063ffffffff16565b611029565b825b915050919050565b60008061103d83611671565b91508103611080576040517f08c379a000000000000000000000000000000000000000000000000000000000815260040161107790613f27565b60405180910390fd5b61108a8183612e6f565b6110943383612e96565b3373ffffffffffffffffffffffffffffffffffffffff163373ffffffffffffffffffffffffffffffffffffffff163373ffffffffffffffffffffffffffffffffffffffff167ffbde797d201c681b91056529119e0b02407c7bb96a4a2c75c01fc9667232c8db848660405161110a929190613f47565b60405180910390a47f000000000000000000000000000000000000000000000000000000000000000073ffffffffffffffffffffffffffffffffffffffff16632e1a7d4d826040518263ffffffff1660e01b815260040161116b919061343a565b600060405180830381600087803b15801561118557600080fd5b505af1158015611199573d6000803e3d6000fd5b505050506111c6813373ffffffffffffffffffffffffffffffffffffffff16612f6690919063ffffffff16565b919050565b60035481565b600b5481565b600061120a83836040516020016111ef929190613e53565b60405160208183030381529060405280519060200120612fb9565b905092915050565b600080600560008673ffffffffffffffffffffffffffffffffffffffff1673ffffffffffffffffffffffffffffffffffffffff16815260200190815260200160002060003373ffffffffffffffffffffffffffffffffffffffff1673ffffffffffffffffffffffffffffffffffffffff1681526020019081526020016000205490507fffffffffffffffffffffffffffffffffffffffffffffffffffffffffffffffff81146113485782816112c79190613d08565b600560008773ffffffffffffffffffffffffffffffffffffffff1673ffffffffffffffffffffffffffffffffffffffff16815260200190815260200160002060003373ffffffffffffffffffffffffffffffffffffffff1673ffffffffffffffffffffffffffffffffffffffff168152602001908152602001600020819055505b82600460008773ffffffffffffffffffffffffffffffffffffffff1673ffffffffffffffffffffffffffffffffffffffff16815260200190815260200160002060008282546113979190613d08565b9250508190555082600460008673ffffffffffffffffffffffffffffffffffffffff1673ffffffffffffffffffffffffffffffffffffffff168152602001908152602001600020600082825401925050819055508373ffffffffffffffffffffffffffffffffffffffff168573ffffffffffffffffffffffffffffffffffffffff167fddf252ad1be2c89b69c2b068fc378daa952ba7f163c4a11628f55a4df523b3ef85604051611448919061343a565b60405180910390a360019150509392505050565b7f000000000000000000000000000000000000000000000000000000000000000081565b60007f000000000000000000000000000000000000000000000000000000000000000046146114b6576114b161305d565b6114d8565b7f00000000000000000000000000000000000000000000000000000000000000005b905090565b600034905081836114ee9190613c7e565b811415806114fd5750600a5483115b15611534576040517fcd1738ed00000000000000000000000000000000000000000000000000000000815260040160405180910390fd5b82600a60008282546115469190613d08565b925050819055507f000000000000000000000000000000000000000000000000000000000000000073ffffffffffffffffffffffffffffffffffffffff1663d0e30db0826040518263ffffffff1660e01b81526004016000604051808303818588803b1580156115b557600080fd5b505af11580156115c9573d6000803e3d6000fd5b50505050503373ffffffffffffffffffffffffffffffffffffffff167f20277ab4ddef2939170aab69c4e3bd7132b4eff8e276e9cebe259bd0c1618bc08484604051611616929190613f47565b60405180910390a2505050565b7f000000000000000000000000000000000000000000000000000000000000000081565b60007fffffffffffffffffffffffffffffffffffffffffffffffffffffffffffffffff9050919050565b600061167c82610ec9565b9050919050565b600a5481565b60008054906101000a900460ff1681565b600760049054906101000a900463ffffffff1681565b6000806116bc84612b6c565b915081036116ff576040517f08c379a00000000000000000000000000000000000000000000000000000000081526004016116f690613fbc565b60405180910390fd5b61174c3330857f000000000000000000000000000000000000000000000000000000000000000073ffffffffffffffffffffffffffffffffffffffff166130e9909392919063ffffffff16565b6117568282613188565b8173ffffffffffffffffffffffffffffffffffffffff163373ffffffffffffffffffffffffffffffffffffffff167fdcbc1c05240f31ff3ad067ef1ee35ce4997762752e3a095284754544f4c709d785846040516117b5929190613f47565b60405180910390a36117c78382613258565b92915050565b600760009054906101000a900463ffffffff1681565b60046020528060005260406000206000915090505481565b6000600860009054906101000a900477ffffffffffffffffffffffffffffffffffffffffffffffff169050600061183142612d56565b9050600760089054906101000a900463ffffffff1663ffffffff168163ffffffff16101561188b576040517f49f4cf9c00000000000000000000000000000000000000000000000000000000815260040160405180910390fd5b600060095490506000600a54905060008477ffffffffffffffffffffffffffffffffffffffffffffffff1683837f000000000000000000000000000000000000000000000000000000000000000073ffffffffffffffffffffffffffffffffffffffff166370a08231306040518263ffffffff1660e01b81526004016119119190613682565b602060405180830381865afa15801561192e573d6000803e3d6000fd5b505050506040513d601f19601f820116820180604052508101906119529190613ff1565b61195c9190613c7e565b6119669190613d08565b6119709190613d08565b90508477ffffffffffffffffffffffffffffffffffffffffffffffff16836119989190613c7e565b6009819055506000600760009054906101000a900463ffffffff16856119be919061401e565b90506119c98261327f565b600860006101000a81548177ffffffffffffffffffffffffffffffffffffffffffffffff021916908377ffffffffffffffffffffffffffffffffffffffffffffffff16021790555084600760046101000a81548163ffffffff021916908363ffffffff16021790555080600760086101000a81548163ffffffff021916908363ffffffff1602179055508063ffffffff167f2fa39aac60d1c94cda4ab0e86ae9c0ffab5b926e5b827a4ccba1d9b5b2ef596e83604051611a89919061343a565b60405180910390a2505050505050565b60066020528060005260406000206000915090505481565b6000611abb6125e1565b905090565b6000611acb83611fe0565b9050611b1a3330837f000000000000000000000000000000000000000000000000000000000000000073ffffffffffffffffffffffffffffffffffffffff166130e9909392919063ffffffff16565b611b248284613188565b8173ffffffffffffffffffffffffffffffffffffffff163373ffffffffffffffffffffffffffffffffffffffff167fdcbc1c05240f31ff3ad067ef1ee35ce4997762752e3a095284754544f4c709d78386604051611b83929190613f47565b60405180910390a3611b958184613258565b92915050565b60028054611ba890613eaa565b80601f0160208091040260200160405190810160405280929190818152602001828054611bd490613eaa565b8015611c215780601f10611bf657610100808354040283529160200191611c21565b820191906000526020600020905b815481529060010190602001808311611c0457829003601f168201915b505050505081565b6000803490506000611c3a82612b6c565b92508203611c74576040517f9811e0c700000000000000000000000000000000000000000000000000000000815260040160405180910390fd5b7f000000000000000000000000000000000000000000000000000000000000000073ffffffffffffffffffffffffffffffffffffffff1663d0e30db0826040518263ffffffff1660e01b81526004016000604051808303818588803b158015611cdc57600080fd5b505af1158015611cf0573d6000803e3d6000fd5b5050505050611cff3383613188565b3373ffffffffffffffffffffffffffffffffffffffff163373ffffffffffffffffffffffffffffffffffffffff167fdcbc1c05240f31ff3ad067ef1ee35ce4997762752e3a095284754544f4c709d78385604051611d5e929190613f47565b60405180910390a3611d708183613258565b5090565b600081600460003373ffffffffffffffffffffffffffffffffffffffff1673ffffffffffffffffffffffffffffffffffffffff1681526020019081526020016000206000828254611dc59190613d08565b9250508190555081600460008573ffffffffffffffffffffffffffffffffffffffff1673ffffffffffffffffffffffffffffffffffffffff168152602001908152602001600020600082825401925050819055508273ffffffffffffffffffffffffffffffffffffffff163373ffffffffffffffffffffffffffffffffffffffff167fddf252ad1be2c89b69c2b068fc378daa952ba7f163c4a11628f55a4df523b3ef84604051611e76919061343a565b60405180910390a36001905092915050565b6000611e9382610ff6565b9050611e9f8282612e6f565b611ea93382612e96565b3373ffffffffffffffffffffffffffffffffffffffff163373ffffffffffffffffffffffffffffffffffffffff163373ffffffffffffffffffffffffffffffffffffffff167ffbde797d201c681b91056529119e0b02407c7bb96a4a2c75c01fc9667232c8db8585604051611f1f929190613f47565b60405180910390a47f000000000000000000000000000000000000000000000000000000000000000073ffffffffffffffffffffffffffffffffffffffff16632e1a7d4d836040518263ffffffff1660e01b8152600401611f80919061343a565b600060405180830381600087803b158015611f9a57600080fd5b505af1158015611fae573d6000803e3d6000fd5b50505050611fdb823373ffffffffffffffffffffffffffffffffffffffff16612f6690919063ffffffff16565b919050565b6000806003549050600081146120115761200c611ffb610cf3565b8285612e3d9092919063ffffffff16565b612013565b825b915050919050565b600061202684610ff6565b90508173ffffffffffffffffffffffffffffffffffffffff163373ffffffffffffffffffffffffffffffffffffffff1614612192576000600560008473ffffffffffffffffffffffffffffffffffffffff1673ffffffffffffffffffffffffffffffffffffffff16815260200190815260200160002060003373ffffffffffffffffffffffffffffffffffffffff1673ffffffffffffffffffffffffffffffffffffffff1681526020019081526020016000205490507fffffffffffffffffffffffffffffffffffffffffffffffffffffffffffffffff811461219057818161210f9190613d08565b600560008573ffffffffffffffffffffffffffffffffffffffff1673ffffffffffffffffffffffffffffffffffffffff16815260200190815260200160002060003373ffffffffffffffffffffffffffffffffffffffff1673ffffffffffffffffffffffffffffffffffffffff168152602001908152602001600020819055505b505b61219c8482612e6f565b6121a68282612e96565b8173ffffffffffffffffffffffffffffffffffffffff168373ffffffffffffffffffffffffffffffffffffffff163373ffffffffffffffffffffffffffffffffffffffff167ffbde797d201c681b91056529119e0b02407c7bb96a4a2c75c01fc9667232c8db878560405161221c929190613f47565b60405180910390a461226f83857f000000000000000000000000000000000000000000000000000000000000000073ffffffffffffffffffffffffffffffffffffffff166132ae9092919063ffffffff16565b9392505050565b60008173ffffffffffffffffffffffffffffffffffffffff163373ffffffffffffffffffffffffffffffffffffffff16146123e2576000600560008473ffffffffffffffffffffffffffffffffffffffff1673ffffffffffffffffffffffffffffffffffffffff16815260200190815260200160002060003373ffffffffffffffffffffffffffffffffffffffff1673ffffffffffffffffffffffffffffffffffffffff1681526020019081526020016000205490507fffffffffffffffffffffffffffffffffffffffffffffffffffffffffffffffff81146123e057848161235f9190613d08565b600560008573ffffffffffffffffffffffffffffffffffffffff1673ffffffffffffffffffffffffffffffffffffffff16815260200190815260200160002060003373ffffffffffffffffffffffffffffffffffffffff1673ffffffffffffffffffffffffffffffffffffffff168152602001908152602001600020819055505b505b60006123ed85611671565b91508103612430576040517f08c379a000000000000000000000000000000000000000000000000000000000815260040161242790613f27565b60405180910390fd5b61243a8185612e6f565b6124448285612e96565b8173ffffffffffffffffffffffffffffffffffffffff168373ffffffffffffffffffffffffffffffffffffffff163373ffffffffffffffffffffffffffffffffffffffff167ffbde797d201c681b91056529119e0b02407c7bb96a4a2c75c01fc9667232c8db84886040516124ba929190613f47565b60405180910390a461250d83827f000000000000000000000000000000000000000000000000000000000000000073ffffffffffffffffffffffffffffffffffffffff166132ae9092919063ffffffff16565b9392505050565b600860009054906101000a900477ffffffffffffffffffffffffffffffffffffffffffffffff1681565b670de0b6b3a7640000811115612589576040517f08c379a0000000000000000000000000000000000000000000000000000000008152600401612580906140a4565b60405180910390fd5b80600b819055503373ffffffffffffffffffffffffffffffffffffffff167f95bc4480b51f4860106d42850bcae222cf3303fb2b7d433e896205e0ebefe369826040516125d6919061343a565b60405180910390a250565b6000807f000000000000000000000000000000000000000000000000000000000000000073ffffffffffffffffffffffffffffffffffffffff166370a08231306040518263ffffffff1660e01b815260040161263d9190613682565b602060405180830381865afa15801561265a573d6000803e3d6000fd5b505050506040513d601f19601f8201168201806040525081019061267e9190613ff1565b90508091505090565b60095481565b60007fffffffffffffffffffffffffffffffffffffffffffffffffffffffffffffffff9050919050565b6000806003549050600081146126e8576126e3816126d3610cf3565b85612e159092919063ffffffff16565b6126ea565b825b915050919050565b600061273c600460008473ffffffffffffffffffffffffffffffffffffffff1673ffffffffffffffffffffffffffffffffffffffff16815260200190815260200160002054610ec9565b9050919050565b6000806127758360405160200161275a9190614110565b60405160208183030381529060405280519060200120612d71565b9050600073ffffffffffffffffffffffffffffffffffffffff168173ffffffffffffffffffffffffffffffffffffffff16036127e6576040517f08c379a00000000000000000000000000000000000000000000000000000000081526004016127dd9061417e565b60405180910390fd5b80915050919050565b42841015612832576040517f08c379a0000000000000000000000000000000000000000000000000000000008152600401612829906141ea565b60405180910390fd5b6000600161283e611480565b7f6e71edae12b1b97f4d1f60370fef10105fa2faae0126114a169c64845d6126c98a8a8a600660008f73ffffffffffffffffffffffffffffffffffffffff1673ffffffffffffffffffffffffffffffffffffffff1681526020019081526020016000206000815480929190600101919050558b6040516020016128c69695949392919061420a565b604051602081830303815290604052805190602001206040516020016128ed9291906142b7565b604051602081830303815290604052805190602001208585856040516000815260200160405260405161292394939291906142ee565b6020604051602081039080840390855afa158015612945573d6000803e3d6000fd5b505050602060405103519050600073ffffffffffffffffffffffffffffffffffffffff168173ffffffffffffffffffffffffffffffffffffffff16141580156129b957508773ffffffffffffffffffffffffffffffffffffffff168173ffffffffffffffffffffffffffffffffffffffff16145b6129f8576040517f08c379a00000000000000000000000000000000000000000000000000000000081526004016129ef9061437f565b60405180910390fd5b85600560008373ffffffffffffffffffffffffffffffffffffffff1673ffffffffffffffffffffffffffffffffffffffff16815260200190815260200160002060008973ffffffffffffffffffffffffffffffffffffffff1673ffffffffffffffffffffffffffffffffffffffff16815260200190815260200160002081905550508573ffffffffffffffffffffffffffffffffffffffff168773ffffffffffffffffffffffffffffffffffffffff167f8c5be1e5ebec7d5bd14f71427d1e84f3dd0314c0f7b2291e5b200ac8c7c3b92587604051612ad7919061343a565b60405180910390a350505050505050565b6000600460008373ffffffffffffffffffffffffffffffffffffffff1673ffffffffffffffffffffffffffffffffffffffff168152602001908152602001600020549050919050565b6005602052816000526040600020602052806000526040600020600091509150505481565b600760089054906101000a900463ffffffff1681565b6000612b77826126b7565b9050919050565b612b866125e1565b811115612bbf576040517fcd4f992200000000000000000000000000000000000000000000000000000000815260040160405180910390fd5b80600a6000828254612bd19190613c7e565b925050819055503373ffffffffffffffffffffffffffffffffffffffff167fe08c86221c085c9dac4aa33459f344d0a1e7066a05a972ad91a3ac22e9d2c70c82604051612c1e919061343a565b60405180910390a27f000000000000000000000000000000000000000000000000000000000000000073ffffffffffffffffffffffffffffffffffffffff16632e1a7d4d826040518263ffffffff1660e01b8152600401612c7f919061343a565b600060405180830381600087803b158015612c9957600080fd5b505af1158015612cad573d6000803e3d6000fd5b5050505060003390508073ffffffffffffffffffffffffffffffffffffffff1663ffe09241836040518263ffffffff1660e01b81526004016000604051808303818588803b158015612cfe57600080fd5b505af1158015612d12573d6000803e3d6000fd5b50505050505050565b6000612d4e8383604051602001612d33929190613e53565b60405160208183030381529060405280519060200120613346565b905092915050565b60006401000000008210612d6957600080fd5b819050919050565b60008060019054906101000a900473ffffffffffffffffffffffffffffffffffffffff1673ffffffffffffffffffffffffffffffffffffffff166321f8a721836040518263ffffffff1660e01b8152600401612dcd91906138db565b602060405180830381865afa158015612dea573d6000803e3d6000fd5b505050506040513d601f19601f82011682018060405250810190612e0e91906143b4565b9050919050565b60008284029050828482041484151782151516612e3157600080fd5b81810490509392505050565b60008284029050828482041484151782151516612e5957600080fd5b6001826001830304018115150290509392505050565b612e7982826133ea565b8160096000828254612e8b9190613d08565b925050819055505050565b80600460008473ffffffffffffffffffffffffffffffffffffffff1673ffffffffffffffffffffffffffffffffffffffff1681526020019081526020016000206000828254612ee59190613d08565b9250508190555080600360008282540392505081905550600073ffffffffffffffffffffffffffffffffffffffff168273ffffffffffffffffffffffffffffffffffffffff167fddf252ad1be2c89b69c2b068fc378daa952ba7f163c4a11628f55a4df523b3ef83604051612f5a919061343a565b60405180910390a35050565b600080600080600085875af1905080612fb4576040517f08c379a0000000000000000000000000000000000000000000000000000000008152600401612fab9061442d565b60405180910390fd5b505050565b60008060019054906101000a900473ffffffffffffffffffffffffffffffffffffffff1673ffffffffffffffffffffffffffffffffffffffff16637ae1cfca836040518263ffffffff1660e01b815260040161301591906138db565b602060405180830381865afa158015613032573d6000803e3d6000fd5b505050506040513d601f19601f820116820180604052508101906130569190614479565b9050919050565b60007f8b73c3c69bb8fe3d512ecc4cf759cc79239f7b179b0ffacaa9a75d522b39400f600160405161308f9190614545565b60405180910390207fc89efdaa54c0f20c7adf612882df0950f5a951637e0307cdcb4c672f298b8bc646306040516020016130ce95949392919061455c565b60405160208183030381529060405280519060200120905090565b60006040517f23b872dd0000000000000000000000000000000000000000000000000000000081528460048201528360248201528260448201526020600060648360008a5af13d15601f3d1160016000511416171691505080613181576040517f08c379a0000000000000000000000000000000000000000000000000000000008152600401613178906145fb565b60405180910390fd5b5050505050565b806003600082825461319a9190613c7e565b9250508190555080600460008473ffffffffffffffffffffffffffffffffffffffff1673ffffffffffffffffffffffffffffffffffffffff168152602001908152602001600020600082825401925050819055508173ffffffffffffffffffffffffffffffffffffffff16600073ffffffffffffffffffffffffffffffffffffffff167fddf252ad1be2c89b69c2b068fc378daa952ba7f163c4a11628f55a4df523b3ef8360405161324c919061343a565b60405180910390a35050565b816009600082825461326a9190613c7e565b9250508190555061327b82826133ee565b5050565b6000780100000000000000000000000000000000000000000000000082106132a657600080fd5b819050919050565b60006040517fa9059cbb000000000000000000000000000000000000000000000000000000008152836004820152826024820152602060006044836000895af13d15601f3d1160016000511416171691505080613340576040517f08c379a000000000000000000000000000000000000000000000000000000000815260040161333790614667565b60405180910390fd5b50505050565b60008060019054906101000a900473ffffffffffffffffffffffffffffffffffffffff1673ffffffffffffffffffffffffffffffffffffffff1663bd02d0f5836040518263ffffffff1660e01b81526004016133a291906138db565b602060405180830381865afa1580156133bf573d6000803e3d6000fd5b505050506040513d601f19601f820116820180604052508101906133e39190613ff1565b9050919050565b5050565b5050565b7f4e487b7100000000000000000000000000000000000000000000000000000000600052600160045260246000fd5b6000819050919050565b61343481613421565b82525050565b600060208201905061344f600083018461342b565b92915050565b6000604051905090565b600080fd5b600080fd5b6000819050919050565b61347c81613469565b811461348757600080fd5b50565b60008135905061349981613473565b92915050565b600080fd5b600080fd5b6000601f19601f8301169050919050565b7f4e487b7100000000000000000000000000000000000000000000000000000000600052604160045260246000fd5b6134f2826134a9565b810181811067ffffffffffffffff82111715613511576135106134ba565b5b80604052505050565b6000613524613455565b905061353082826134e9565b919050565b600067ffffffffffffffff8211156135505761354f6134ba565b5b613559826134a9565b9050602081019050919050565b82818337600083830152505050565b600061358861358384613535565b61351a565b9050828152602081018484840111156135a4576135a36134a4565b5b6135af848285613566565b509392505050565b600082601f8301126135cc576135cb61349f565b5b81356135dc848260208601613575565b91505092915050565b600080604083850312156135fc576135fb61345f565b5b600061360a8582860161348a565b925050602083013567ffffffffffffffff81111561362b5761362a613464565b5b613637858286016135b7565b9150509250929050565b600073ffffffffffffffffffffffffffffffffffffffff82169050919050565b600061366c82613641565b9050919050565b61367c81613661565b82525050565b60006020820190506136976000830184613673565b92915050565b600081519050919050565b600082825260208201905092915050565b60005b838110156136d75780820151818401526020810190506136bc565b838111156136e6576000848401525b50505050565b60006136f78261369d565b61370181856136a8565b93506137118185602086016136b9565b61371a816134a9565b840191505092915050565b6000602082019050818103600083015261373f81846136ec565b905092915050565b61375081613421565b811461375b57600080fd5b50565b60008135905061376d81613747565b92915050565b6000602082840312156137895761378861345f565b5b60006137978482850161375e565b91505092915050565b6137a981613661565b81146137b457600080fd5b50565b6000813590506137c6816137a0565b92915050565b600080604083850312156137e3576137e261345f565b5b60006137f1858286016137b7565b92505060206138028582860161375e565b9150509250929050565b60008115159050919050565b6138218161380c565b82525050565b600060208201905061383c6000830184613818565b92915050565b60008060006060848603121561385b5761385a61345f565b5b6000613869868287016137b7565b935050602061387a868287016137b7565b925050604061388b8682870161375e565b9150509250925092565b600060ff82169050919050565b6138ab81613895565b82525050565b60006020820190506138c660008301846138a2565b92915050565b6138d581613469565b82525050565b60006020820190506138f060008301846138cc565b92915050565b6000806040838503121561390d5761390c61345f565b5b600061391b8582860161375e565b925050602061392c8582860161375e565b9150509250929050565b6000819050919050565b600061395b61395661395184613641565b613936565b613641565b9050919050565b600061396d82613940565b9050919050565b600061397f82613962565b9050919050565b61398f81613974565b82525050565b60006020820190506139aa6000830184613986565b92915050565b6000602082840312156139c6576139c561345f565b5b60006139d4848285016137b7565b91505092915050565b600063ffffffff82169050919050565b6139f6816139dd565b82525050565b6000602082019050613a1160008301846139ed565b92915050565b60008060408385031215613a2e57613a2d61345f565b5b6000613a3c8582860161375e565b9250506020613a4d858286016137b7565b9150509250929050565b600080600060608486031215613a7057613a6f61345f565b5b6000613a7e8682870161375e565b9350506020613a8f868287016137b7565b9250506040613aa0868287016137b7565b9150509250925092565b600077ffffffffffffffffffffffffffffffffffffffffffffffff82169050919050565b613ad781613aaa565b82525050565b6000602082019050613af26000830184613ace565b92915050565b600060208284031215613b0e57613b0d61345f565b5b600082013567ffffffffffffffff811115613b2c57613b2b613464565b5b613b38848285016135b7565b91505092915050565b613b4a81613895565b8114613b5557600080fd5b50565b600081359050613b6781613b41565b92915050565b600080600080600080600060e0888a031215613b8c57613b8b61345f565b5b6000613b9a8a828b016137b7565b9750506020613bab8a828b016137b7565b9650506040613bbc8a828b0161375e565b9550506060613bcd8a828b0161375e565b9450506080613bde8a828b01613b58565b93505060a0613bef8a828b0161348a565b92505060c0613c008a828b0161348a565b91505092959891949750929550565b60008060408385031215613c2657613c2561345f565b5b6000613c34858286016137b7565b9250506020613c45858286016137b7565b9150509250929050565b7f4e487b7100000000000000000000000000000000000000000000000000000000600052601160045260246000fd5b6000613c8982613421565b9150613c9483613421565b9250827fffffffffffffffffffffffffffffffffffffffffffffffffffffffffffffffff03821115613cc957613cc8613c4f565b5b828201905092915050565b6000613cdf826139dd565b9150613cea836139dd565b925082821015613cfd57613cfc613c4f565b5b828203905092915050565b6000613d1382613421565b9150613d1e83613421565b925082821015613d3157613d30613c4f565b5b828203905092915050565b6000613d4782613421565b9150613d5283613421565b9250817fffffffffffffffffffffffffffffffffffffffffffffffffffffffffffffffff0483118215151615613d8b57613d8a613c4f565b5b828202905092915050565b7f4e487b7100000000000000000000000000000000000000000000000000000000600052601260045260246000fd5b6000613dd082613421565b9150613ddb83613421565b925082613deb57613dea613d96565b5b828204905092915050565b6000819050919050565b613e11613e0c82613469565b613df6565b82525050565b600081905092915050565b6000613e2d8261369d565b613e378185613e17565b9350613e478185602086016136b9565b80840191505092915050565b6000613e5f8285613e00565b602082019150613e6f8284613e22565b91508190509392505050565b7f4e487b7100000000000000000000000000000000000000000000000000000000600052602260045260246000fd5b60006002820490506001821680613ec257607f821691505b602082108103613ed557613ed4613e7b565b5b50919050565b7f5a45524f5f415353455453000000000000000000000000000000000000000000600082015250565b6000613f11600b836136a8565b9150613f1c82613edb565b602082019050919050565b60006020820190508181036000830152613f4081613f04565b9050919050565b6000604082019050613f5c600083018561342b565b613f69602083018461342b565b9392505050565b7f5a45524f5f534841524553000000000000000000000000000000000000000000600082015250565b6000613fa6600b836136a8565b9150613fb182613f70565b602082019050919050565b60006020820190508181036000830152613fd581613f99565b9050919050565b600081519050613feb81613747565b92915050565b6000602082840312156140075761400661345f565b5b600061401584828501613fdc565b91505092915050565b6000614029826139dd565b9150614034836139dd565b92508263ffffffff0382111561404d5761404c613c4f565b5b828201905092915050565b7f5441524745545f544f4f5f484947480000000000000000000000000000000000600082015250565b600061408e600f836136a8565b915061409982614058565b602082019050919050565b600060208201905081810360008301526140bd81614081565b9050919050565b7f636f6e74726163742e6164647265737300000000000000000000000000000000600082015250565b60006140fa601083613e17565b9150614105826140c4565b601082019050919050565b600061411b826140ed565b91506141278284613e22565b915081905092915050565b7f436f6e7472616374206e6f7420666f756e640000000000000000000000000000600082015250565b60006141686012836136a8565b915061417382614132565b602082019050919050565b600060208201905081810360008301526141978161415b565b9050919050565b7f5045524d49545f444541444c494e455f45585049524544000000000000000000600082015250565b60006141d46017836136a8565b91506141df8261419e565b602082019050919050565b60006020820190508181036000830152614203816141c7565b9050919050565b600060c08201905061421f60008301896138cc565b61422c6020830188613673565b6142396040830187613673565b614246606083018661342b565b614253608083018561342b565b61426060a083018461342b565b979650505050505050565b7f1901000000000000000000000000000000000000000000000000000000000000600082015250565b60006142a1600283613e17565b91506142ac8261426b565b600282019050919050565b60006142c282614294565b91506142ce8285613e00565b6020820191506142de8284613e00565b6020820191508190509392505050565b600060808201905061430360008301876138cc565b61431060208301866138a2565b61431d60408301856138cc565b61432a60608301846138cc565b95945050505050565b7f494e56414c49445f5349474e4552000000000000000000000000000000000000600082015250565b6000614369600e836136a8565b915061437482614333565b602082019050919050565b600060208201905081810360008301526143988161435c565b9050919050565b6000815190506143ae816137a0565b92915050565b6000602082840312156143ca576143c961345f565b5b60006143d88482850161439f565b91505092915050565b7f4554485f5452414e534645525f4641494c454400000000000000000000000000600082015250565b60006144176013836136a8565b9150614422826143e1565b602082019050919050565b600060208201905081810360008301526144468161440a565b9050919050565b6144568161380c565b811461446157600080fd5b50565b6000815190506144738161444d565b92915050565b60006020828403121561448f5761448e61345f565b5b600061449d84828501614464565b91505092915050565b600081905092915050565b60008190508160005260206000209050919050565b600081546144d381613eaa565b6144dd81866144a6565b945060018216600081146144f857600181146145095761453c565b60ff1983168652818601935061453c565b614512856144b1565b60005b8381101561453457815481890152600182019150602081019050614515565b838801955050505b50505092915050565b600061455182846144c6565b915081905092915050565b600060a08201905061457160008301886138cc565b61457e60208301876138cc565b61458b60408301866138cc565b614598606083018561342b565b6145a56080830184613673565b9695505050505050565b7f5452414e534645525f46524f4d5f4641494c4544000000000000000000000000600082015250565b60006145e56014836136a8565b91506145f0826145af565b602082019050919050565b60006020820190508181036000830152614614816145d8565b9050919050565b7f5452414e534645525f4641494c45440000000000000000000000000000000000600082015250565b6000614651600f836136a8565b915061465c8261461b565b602082019050919050565b6000602082019050818103600083015261468081614644565b905091905056fea2646970667358221220933f3d820901ad9f1b2a11a5d98fc4a17baee1ac8e5201b40a14073881c3caa064736f6c634300080d0033",
  "linkReferences": {},
  "deployedLinkReferences": {}
}